:0200000280007C
:10000000C008002085030800810308008103080060
:10001000810308008103080081030800000000003C
:100020000000000000000000000000008103080044
:10003000810308000000000081030800610308003C
:100040008103080081030800810308008103080080
:100050008103080081030800810308008103080070
:10006000F50A080081030800000000008103080071
:1000700081030800810308008103080000000000DC
:1000800000000000810308008103080081030800CC
:100090008103080081030800810308008103080030
:1000A00081030800000000008103080081030800AC
:1000B0008103080081030800810308008103080010
:1000C0008103080081030800810308008103080000
:1000D00081030800810308008103080081030800F0
:1000E000810308008103080081030800110708004C
:1000F0008103080010B5054C237833B9044B13B1C4
:100100000448AFF300800123237010BD34040020A5
:1001100000000000940D08000C4B43B10C4810B5D2
:100120000C49AFF300800C48036823B910BD0A489E
:10013000036833B97047094B002BF7D0BDE8104076
:100140001847064B002BF5D0184700BF00000000F1
:10015000940D080038040020940D080000000000F1
:100160000C4A01231360802353600B49D1F80C31F2
:1001700043F0805343F02503C1F80C31D1F800312E
:1001800043F02003C1F800310423136102231360FC
:10019000704700BF00000C4000060E40F8B5164C3A
:1001A000636B43F001036363236B43F00403236336
:1001B0000220124FB847124EF56BC5F34705636B2B
:1001C00043F0040363630220B847F06B4008000269
:1001D00000B22843636B43F002036363236B43F075
:1001E00002032363236B43F001032363B0F5FA6F2B
:1001F00000DD0020F8BD00BF00140E4041030800E0
:1002000000120E4080B2C0EB0020044B83FB0023A1
:100210000344C017C0EBA320C0B270471156B6BA52
:10022000024A136B43F480631363704700140E405B
:10023000024A536B43F480635363704700140E40CB
:1002400010B5884205D3401A84B2044B9847204623
:1002500010BD081A84B2024B9847F8E73102080033
:100260002102080008B5114B9847114B196840F25C
:100270000760014319601A6902431A610D4A116847
:1002800041F4FF711160516941F4FF715161A2F5B0
:1002900040620949C2F80C11116941F40051116121
:1002A0004FF400721A63054B984708BDC10208005D
:1002B00000140E4000120E400D0000103102080024
:1002C0000B4901230B600B4AD2F80C3143F08053E9
:1002D00043F02603C2F80C31D2F8003143F040035A
:1002E000C2F80031044B4B6002230B61704700BF22
:1002F00000800C4000060E40000001080003C0F31F
:100300000F20014B1862704700800C40542303FB00
:1003100000F00138084B586000229A60074981F8C4
:10032000232004221A601A6842F002021A601A6836
:1003300042F001021A60704710E000E000ED00E0BA
:1003400008B5054B18604FF47A70044B9847024B80
:100350001B68002BFBD108BD500400200D030800D2
:10036000054B1B681BB90022044B1A607047024AF8
:100370001368013B136070475004002010E000E058
:10038000FEE7000008B5114B114A9A4209D00F4B05
:100390000F4A03E011681960043304320D498B429F
:1003A000F8D30D4B02E000221A6004330B4A93424B
:1003B000F9D30B4B23F0604323F07F03094A93608A
:1003C000094B9847094B9847FEE700BF0000002003
:1003D000940D08003404002034040020C0040020E0
:1003E0000000080000ED00E05D0B08009504080027
:1003F0004FF48063204A136002F5007213601F4BB4
:100400001B6A13F0807F07D11D4A1C4B1A621B4BDD
:100410009B6E13F0010FFAD01A4A184B1A62174B51
:100420009B6E13F4803FFAD0144A136B23F003033E
:1004300043F001031363114B9B6E13F0080FFAD0C6
:10044000114A0E4B9A620D4B9B6E13F0020FFAD0BD
:1004500011220A4B1A63094B9B6E13F0080FFAD056
:100460001222064B1A63054B9B6E13F0080FFAD04D
:10047000064A074B1A607047000A0E4000060E40FD
:100480000908370009083701013F0D2000BD0105AB
:100490000000002030B583B0154B9847154B9847A6
:1004A0001548164B9847164B9847164B98474FF4EC
:1004B0000042154B5A60154B984700231B801B8048
:1004C00001A8134B9847134DA847134B9847014673
:1004D0004620124B98470446A84723460246462129
:1004E0000F48104DA847E0B20F4B9847E8E700BF10
:1004F000F1030800690A0800563114007D0608005F
:10050000610108002D050800501A0E406502080020
:100510009D0708009D01080005020800410208002F
:10052000CC0C0800450A0800FD020800174B5A6869
:1005300042F440225A601A6F42F440221A67144A69
:10054000D2F80C3143F0805343F02403C2F80C314D
:10055000D2F8003143F01003C2F800310D4B0022F5
:100560001A604FF054121A601A681A600B22C3F80E
:10057000A0220C22C3F8C02260225A6044F62062F6
:10058000C3F8AC22C3F8CC22704700BF00120E4063
:1005900000060E4000400940F0B45718082FD4BFA1
:1005A00000230123082998BF082A5CD80D46002B98
:1005B00059D12E4A136823F00103136013692C4BA1
:1005C0004FF440745C641C6F24F003041C67032424
:1005D0005C605C66A3F50063264CC3F80C41D3F85D
:1005E000004144F40064C3F800415061002419E064
:1005F0001E4801F110035B01C2180026566000EB93
:1006000041124FF00056C2F808624FF08076C65093
:10061000D2F81C3243F40003C2F81C3201238B4091
:100620001C430131B942E3DD00230DE00F4901EB2A
:1006300043124FF00050C2F8080203F110025201B9
:100640004FF0407088500133AB42EFDB074B5C60EA
:100650004FF40061084A51601A6842F001021A60C2
:100660000020F0BC70470120FBE700BF00400B40BA
:10067000000E0E402B10001000E100E008B5022231
:100680000121014B984708BD990508004B0103F172
:10069000402303F53023D3F8103213F4000F33D086
:1006A00070B44B0103F1402303F53023D3F8144217
:1006B000D3F81822D3F80852C5F38A450580D3F839
:1006C0001052C5F303458570002303E0C618F2708D
:1006D000120A0133AB4205DA032BF7DCC618F470BB
:1006E000240AF6E7094B01F1100252014FF0807025
:1006F000985003EB4111D1F81C3243F40003C1F8C8
:100700001C32002070BC70470120704700400B4035
:1007100010B584B01B4B1C6914F0060F24D014F0E4
:10072000020F08D114F0040F0AD0022101A8164BC1
:10073000984700230FE0012101A8134B9847F8E7E1
:100740001248134B9847F4E704AA1A4412F8091CFC
:10075000104AD15401339DF806209342F4DB002364
:1007600000E001339342FCDB14F0010F02D00122C0
:10077000044B9A604FF40062074BC3F8842104B025
:1007800010BD00BF00400B408D060800180D08008A
:10079000450A08005404002000E100E0002303E0C3
:1007A000034AD25CC2540133032BF9DD704700BF0A
:1007B0005404002008B5C8B2014B984708BD00BFDB
:1007C000D10A08002DE9F04107460E46151E02DD4C
:1007D0000A46002104E04FF020080EE0013101320A
:1007E00010780028FAD1A94201DA6D1A00E000253C
:1007F00013F0020F06D14FF0200813F001040AD0C5
:10080000002410E04FF03008F7E7414638460D4B22
:1008100098470134013D002DF7DC04E03846094BD0
:1008200098470134013631780029F7D105E0414677
:100830003846044B98470134013D002DF7DC204633
:10084000BDE8F081B5070800F0B585B007460C9803
:1008500051B11E460C4613B10A2A12D0002604AD2F
:10086000002305F8013D18E030238DF80430002303
:100870008DF805300B9B0A9A01A938461B4CA047FE
:1008800029E0002901DB0026E9E74C420126E6E7E2
:10089000303305F8013DB4FBF2F44CB1B4FBF2F394
:1008A00002FB1343092BF3DDA0F13A010B44EFE700
:1008B00056B10A9B1BB10B9B13F0020F0DD12D23D8
:1008C00005F8013C013D00260B9B0A9A2946384653
:1008D000064CA047304405B0F0BD2D213846044BEE
:1008E00098470A9B013B0A93EEE700BFC507080043
:1008F000B5070800F0B589B006460C4605920025FC
:1009000081E0A21C01238BE0013443F00203227832
:10091000302AF9D0002206E002EB82025000A1F159
:100920003002024401342178A1F13000C0B209281C
:10093000F2D9732918D0642922D078292FD05829C8
:100940003CD0752949D063295CD10599081D0590D3
:1009500009788DF81C1000218DF81D1007A930466C
:10096000344FB84705444DE00599081D05900968C6
:1009700021B130462F4FB847054443E02E49F8E7F0
:100980000599081D05900968612002900193009265
:1009900001230A223046294FB847054432E0059921
:1009A000081D0590096861200290019300920023C0
:1009B00010223046214FB847054423E00599081D11
:1009C00005900968412002900193009200231022B3
:1009D00030461A4FB847054414E00599081D0590A4
:1009E0000968612002900193009200230A22304698
:1009F000124FB847054405E0144621783046104BA5
:100A0000984701350134237863B1252BF5D1621C59
:100A100063783BB1252BEFD02D2B3FF472AF002331
:100A2000144674E716B1336800221A70284609B0DC
:100A3000F0BD00BFC5070800440D080049080800C4
:100A4000B50708000FB400B583B004AA52F8041B20
:100A500001920020034B984703B05DF804EB04B00B
:100A6000704700BFF5080800164B00221A705A7034
:100A7000154B4FF44071596459601A6F186F02405A
:100A800022F440721A6759664FF48072A3F500632E
:100A90001A6103F50073AC21196040F22321196239
:100AA0004FF40061596040F20221C3F820114FF069
:100AB000FF31D960E121996004490A6050221A602F
:100AC000704700BF58040020000E0E4000E100E017
:100AD000074B5B6913F0020F08D0054BD861044B3C
:100AE0005B6913F4007FFAD0002070470120704743
:100AF00000080E4008B5154B5B6913F0E00F03D0FA
:100B00004FF4A871114A116013F0010F12D0104870
:100B10004278531C594203F03F0301F03F0158BF94
:100B20004B4201788B4206D00849886908490A443B
:100B300090704B7008BD0748074B9847044B597895
:100B4000024A92690B449A7008BD00BF00080E402B
:100B5000580400204C0D0800450A080070B50F4EDF
:100B60000F4D761BB61018BF002405D0013455F880
:100B7000043B9847A642F9D10A4E0B4D00F0F8F815
:100B8000761BB61018BF002406D0013455F8043B7C
:100B90009847A642F9D170BD70BD00BF7C0D08001A
:100BA0007C0D0800840D08007C0D0800024B13B179
:100BB000024800F005B8704700000000CD0B0800A7
:100BC000002301461A46184600F01EB838B50A4CF4
:100BD0000A4D641BA4100AD004F18043013B05EBCD
:100BE0008305013C55F804399847002CF9D1BDE83C
:100BF000384000F0C7B800BF940D0800900D080001
:100C0000704700BF704700BF2DE9F8432C4D0646E2
:100C1000286898460F469146FFF7F2FF294B1C685B
:100C2000D4F84831002B3ED05A681F2A1CDC02F150
:100C3000010E76B1012103EB8204C4F88890D3F849
:100C4000880191400843022EC3F88801C4F8088146
:100C500023D00232C3F804E0286843F82270FFF77B
:100C6000D1FF0020BDE8F883174B0BB34FF4C870D9
:100C7000AFF300800346D8B10020D4F848114FF0FC
:100C8000010E586019600246C4F84831C3F8880163
:100C9000C3F88C01002EDCD0CCE7D3F88C010143E3
:100CA000C3F88C11D5E704F5A673C4F84831BBE747
:100CB0002868FFF7A7FF4FF0FF30BDE8F88300BFBB
:100CC000300400206C0D08000000000072656665AD
:100CD00072656E6365206973203A2025752C207239
:100CE00065636F7264656420706F736974696F6E99
:100CF0002069733A2025752C20616E642074686524
:100D000020646966666572656E63652069733A2062
:100D10002575200D200A000043414E30206D65737B
:100D200073616765206172726976656420696E20FF
:100D30006E6F6E2D75736564206D61696C626F787E
:100D40000A0D0000286E756C6C2900004552523A5D
:100D500020554152542052582062756666657220B3
:100D600069732066756C6C0A0D0000000800002095
:100D7000F8B500BFF8BC08BC9E467047AD0B080034
:100D800019010800F8B500BFF8BC08BC9E467047C2
:040D9000F500080062
:100D940000093D000000000000000000F4020020F3
:100DA4005C030020C40300200000000000000000D9
:100DB400000000000000000000000000000000002F
:100DC400000000000000000000000000000000001F
:100DD400000000000000000000000000000000000F
:100DE40000000000000000000000000000000000FF
:100DF40000000000000000000000000000000000EF
:100E040000000000000000000000000000000000DE
:100E140000000000000000000000000000000000CE
:100E240000000000000000000000000000000000BE
:100E340000000000000000000000000000000000AE
:100E440001000000000000000E33CDAB34126DE64B
:100E5400ECDE05000B0000000000000000000000B4
:100E6400000000000000000000000000000000007E
:100E7400000000000000000000000000000000006E
:100E8400000000000000000000000000000000005E
:100E9400000000000000000000000000000000004E
:0411C4009C04002067
:040000038000000079
:00000001FF
