S00D00004E6F6465322E737265635F
S214080000C0080020E5030800E1030800E103080033
S214080010E1030800E1030800E1030800000000000F
S214080020000000000000000000000000E1030800D7
S214080030E103080000000000E1030800C10308000F
S214080040E1030800E1030800E1030800E1030800F3
S214080050E1030800E1030800E1030800E1030800E3
S214080060A90C0800E103080000000000E1030800EE
S214080070E1030800E1030800E103080000000000AF
S21408008000000000E1030800E1030800E10308009F
S214080090E1030800E1030800E1030800E1030800A3
S2140800A0E103080000000000E1030800E10308007F
S2140800B0E1030800E1030800E1030800E103080083
S2140800C0E1030800E1030800E1030800E103080073
S2140800D0E1030800E1030800E1030800E103080063
S2140800E0E1030800E1030800E1030800B908080076
S2140800F0E103080010B5054C237833B9044B13B157
S2140801000448AFF300800123237010BD3404002098
S214080110000000004C1C08000C4B43B10C4810B5FE
S2140801200C49AFF300800C48036823B910BD0A4891
S214080130036833B97047094B002BF7D0BDE8104069
S2140801401847064B002BF5D0184700BF00000000E4
S2140801504C1C0800380400204C1C08000000000056
S2140801600C4A01231360802353600B49D1F80C31E5
S21408017043F0805343F02503C1F80C31D1F8003121
S21408018043F02003C1F800310423136102231360EF
S214080190704700BF00000C4000060E40F8B5144C2F
S2140801A0636B43F001036363236B43F00403236329
S2140801B00220104FB847104EF56BC5F34705636B22
S2140801C043F0040363630220B847F06B400800025C
S2140801D000B2636B43F002036363236B43F00203CE
S2140801E02363236B43F0010323632843F8BD00BF52
S2140801F000140E40A103080000120E4080B2C0EBA7
S2140802000020044B83FB00230344C017C0EBA32045
S214080210C0B270471156B6BA024A136B43F48063ED
S2140802201363704700140E40024A536B43F480630E
S2140802305363704700140E4008B5114B9847114B8E
S214080240196840F20760014319601A6902431A6187
S2140802500D4A116841F4FF711160516941F4FF714C
S2140802605161A2F540620949C2F80C11116941F4BE
S214080270005111614FF400721A63054B984708BD88
S2140802802103080000140E4000120E400D00001056
S2140802902902080070B5451A0B1A032BD8BF032D80
S2140802A01DDD1446884213D2DEB20E4B98472368EB
S2140802B02B4423600C4A82FB03125211DB17D01A18
S2140802C09B1A5B00400008D4C0B23044C0B270BD70
S2140802D0401AC6B2054B9847E9E7D8B2F5E70020BA
S2140802E070BD00BF190208001F85EB5129020800DF
S2140802F038B5074CA047074B98477820064DA847BF
S21408030040F6B830054B98470020A847A04738BDA8
S21408031039020800190208005D030800A103080056
S2140803200B4901230B600B4AD2F80C3143F080537B
S21408033043F02603C2F80C31D2F8003143F04003EC
S214080340C2F80031044B4B6002230B61704700BFB4
S21408035000800C4000060E40000001080003C0F3B1
S2140803600F20014B1862704700800C40542303FB93
S21408037000F00138084B586000229A60074981F857
S214080380232004221A601A6842F002021A601A68C9
S21408039042F001021A60704710E000E000ED00E04D
S2140803A008B5054B18604FF47A70044B9847024B13
S2140803B01B68002BFBD108BD500400206D03080005
S2140803C0054B1B681BB90022044B1A607047024A8B
S2140803D01368013B136070475004002010E000E0EB
S2140803E0FEE7000008B5114B114A9A4209D00F4B98
S2140803F00F4A03E011681960043304320D498B4232
S214080400F8D30D4B02E000221A6004330B4A9342DD
S214080410F9D30B4B23F0604323F07F03094A93601C
S214080420094B9847094B9847FEE700BF0000002095
S2140804304C1C08003404002034040020C0040020AB
S2140804400000080000ED00E04D1A0800F50408005A
S2140804504FF48063204A136002F5007213601F4B46
S2140804601B6A13F0807F07D11D4A1C4B1A621B4B70
S2140804709B6E13F0010FFAD01A4A184B1A62174BE4
S2140804809B6E13F4803FFAD0144A136B23F00303D1
S21408049043F001031363114B9B6E13F0080FFAD059
S2140804A0114A0E4B9A620D4B9B6E13F0020FFAD050
S2140804B011220A4B1A63094B9B6E13F0080FFAD0E9
S2140804C01222064B1A63054B9B6E13F0080FFAD0E0
S2140804D0064A074B1A607047000A0E4000060E4090
S2140804E00908370009083701013F0D2000BD01053E
S2140804F00000002010B582B0284B9847284B984734
S2140805002848294B9847294B9847294B9847294B01
S2140805109847294B98474FF40042284B5A60284B77
S214080520984700231B8000932CE002AB234413F863
S214080530041C2448244B98470134032CF5DD234833
S214080540214B9847032101A8214B98470521214BA9
S2140805509847214B9847214B98479DF804306A46A0
S214080560014618461E4B984704469DF80630DBB2EF
S214080570092B0FD932201B4B98471B4B9847204610
S2140805801A4B984701A81A4B98471A480E4B984793
S2140805900024D2E7184B9847ECE700BF5104080040
S2140805A01D0C0800563114002508080061010800D3
S2140805B0FD0508002103080001070800501A0E4030
S2140805C0F1020800C01B0800F90B0800C81B080049
S2140805D0B9060800690608009D010800FD01080024
S2140805E095020800A1030800310708005D0308000B
S2140805F051090800BC1B080021070800174B5A6859
S21408060042F440225A601A6F42F440221A67144A8B
S214080610D2F80C3143F0805343F02403C2F80C316F
S214080620D2F8003143F01003C2F800310D4B002217
S2140806301A604FF054121A601A681A600B22C3F830
S214080640A0220C22C3F8C02260225A6044F6206218
S214080650C3F8AC22C3F8CC22704700BF00120E4085
S21408066000060E4000400940F8B50D460C4C04EB59
S2140806704113D3F80C7201464FF07E50094B984749
S21408068006463846084B98473146084B9847084B65
S214080690984720F07F40103504EB45146060F8BD9D
S2140806A0004009404D150800B116080061170800FB
S2140806B0011A08000000000010B5405CC0F1FF00F9
S2140806C00B4B984706A3D3E900230A4CA04706A37A
S2140806D0D3E90023084CA047084B984710BD00BF35
S2140806E0B41980E64CB3293F9A9999999999A93FE4
S2140806F0B50F0800811008001D0D0800A514080095
S214080700064B1A6842F004021A601A6942F004029C
S2140807101A611A6B42F004021A637047000E0E4004
S214080720024A536B43F0040353637047000E0E40AF
S214080730024A136B43F0040313637047000E0E401F
S214080740F0B45718082FD4BF00230123082998BFF0
S214080750082A5CD80D46002B59D12E4A136823F078
S2140807600103136013692C4B4FF440745C641C6FD0
S21408077024F003041C6703245C605C66A3F500632E
S214080780264CC3F80C41D3F8004144F40064C3F87F
S21408079000415061002419E01E4801F110035B0176
S2140807A0C2180026566000EB41124FF00056C2F8F9
S2140807B008624FF08076C650D2F81C3243F4000325
S2140807C0C2F81C3201238B401C430131B942E3DDD9
S2140807D000230DE00F4901EB43124FF00050C2F81A
S2140807E0080203F1100252014FF04070885001339E
S2140807F0AB42EFDB074B5C604FF40061084A516080
S2140808001A6842F001021A600020F0BC7047012006
S214080810FBE700BF00400B40000E0E402B100010F8
S21408082000E100E008B502220121014B984708BD07
S214080830410708004B0103F1402303F53023D3F8A2
S214080840103213F4000F33D070B44B0103F1402379
S21408085003F53023D3F81442D3F81822D3F80852F5
S214080860C5F38A450580D3F81052C5F3034585704D
S214080870002303E0C618F270120A0133AB4205DA09
S214080880032BF7DCC618F470240AF6E7094B01F1C7
S214080890100252014FF08070985003EB4111D1F8C6
S2140808A01C3243F40003C1F81C32002070BC7047A9
S2140808B00120704700400B4010B584B01E4B1C69E1
S2140808C014F0060F2BD014F0020F0CD114F0040FFE
S2140808D00ED0022101A8194B9847BDF80430012B09
S2140808E016D0002317E0012101A8144B9847F4E717
S2140808F01348144B9847F0E704AA1A4412F8091C40
S214080900114AD15401339DF806209342F4DBE8E7F8
S2140809100023F8E701339DF806209342FADB14F02B
S214080920010F02D00122044B9A604FF40062074B75
S214080930C3F8842104B010BD00400B4035080800F9
S214080940D01B0800F90B08005404002000E100E062
S214080950002303E0034AD25CC2540133032BF9DDBB
S214080960704700BF5404002008B5C8B2014B98472A
S21408097008BD00BF850C08002DE9F04107460E4665
S214080980151E02DD0A46002104E04FF020080EE09E
S2140809900131013210780028FAD1A94201DA6D1A1D
S2140809A000E0002513F0020F06D14FF0200813F0E0
S2140809B001040AD0002410E04FF03008F7E741465B
S2140809C038460D4B98470134013D002DF7DC04E00E
S2140809D03846094B98470134013631780029F7D153
S2140809E005E041463846044B98470134013D002D42
S2140809F0F7DC2046BDE8F08169090800F0B585B047
S214080A0007460C9851B11E460C4613B10A2A12D056
S214080A10002604AD002305F8013D18E030238DF8C4
S214080A20043000238DF805300B9B0A9A01A9384636
S214080A301B4CA04729E0002901DB0026E9E74C42C9
S214080A400126E6E7303305F8013DB4FBF2F44CB175
S214080A50B4FBF2F302FB1343092BF3DDA0F13A01D2
S214080A600B44EFE756B10A9B1BB10B9B13F0020F22
S214080A700DD12D2305F8013C013D00260B9B0A9A53
S214080A8029463846064CA047304405B0F0BD2D210F
S214080A903846044B98470A9B013B0A93EEE700BF8B
S214080AA07909080069090800F0B589B006460C46B9
S214080AB00592002581E0A21C01238BE0013443F057
S214080AC002032278302AF9D0002206E002EB8202DE
S214080AD05000A1F13002024401342178A1F130001F
S214080AE0C0B20928F2D9732918D0642922D07829E7
S214080AF02FD058293CD0752949D063295CD105994F
S214080B00081D059009788DF81C1000218DF81D1019
S214080B1007A93046344FB84705444DE00599081DE7
S214080B200590096821B130462F4FB847054443E081
S214080B302E49F8E70599081D059009686120029076
S214080B400193009201230A223046294FB8470544EC
S214080B5032E00599081D0590096861200290019306
S214080B600092002310223046214FB847054423E060
S214080B700599081D05900968412002900193009286
S214080B800023102230461A4FB847054414E005994A
S214080B90081D0590096861200290019300920023C1
S214080BA00A223046124FB847054405E01446217815
S214080BB03046104B984701350134237863B1252B0E
S214080BC0F5D1621C63783BB1252BEFD02D2B3FF473
S214080BD072AF0023144674E716B1336800221A7001
S214080BE0284609B0F0BD00BF79090800FC1B0800BC
S214080BF0FD090800690908000FB400B583B004AA07
S214080C0052F8041B01920020034B984703B05DF886
S214080C1004EB04B0704700BFA90A0800164B002270
S214080C201A705A70154B4FF44071596459601A6F10
S214080C30186F024022F440721A6759664FF48072A1
S214080C40A3F500631A6103F50073AC21196040F23E
S214080C50232119624FF40061596040F20221C3F85B
S214080C6020114FF0FF31D960E121996004490A60EC
S214080C7050221A60704700BF58040020000E0E402D
S214080C8000E100E0074B5B6913F0020F08D0054B44
S214080C90D861044B5B6913F4007FFAD000207047D4
S214080CA00120704700080E4008B5154B5B6913F025
S214080CB0E00F03D04FF4A871114A116013F0010F2A
S214080CC012D010484278531C594203F03F0301F0F3
S214080CD03F0158BF4B4201788B4206D008498869C5
S214080CE008490A4490704B7008BD0748074B984758
S214080CF0044B5978024A92690B449A7008BD00BFA3
S214080D0000080E4058040020041C0800F90B0800D0
S214080D1081F0004102E000BF83F0004330B54FEA9F
S214080D2041044FEA430594EA050F08BF90EA020F0C
S214080D301FBF54EA000C55EA020C7FEA645C7FEA9F
S214080D40655C00F0E2804FEA5454D4EB5555B8BFC2
S214080D506D420CDD2C4480EA020281EA030382EA33
S214080D60000083EA010180EA020281EA0303362DC5
S214080D7088BF30BD11F0004F4FEA01314FF4801C98
S214080D804CEA113102D0404261EB410113F0004FAA
S214080D904FEA03334CEA133302D0524263EB430361
S214080DA094EA050F00F0A780A4F10104D5F1200EFF
S214080DB00DDB02FA0EFC22FA05F2801841F100015A
S214080DC003FA0EF2801843FA05F359410EE0A5F12E
S214080DD020050EF1200E012A03FA0EFC28BF4CF05F
S214080DE0020C43FA05F3C01851EBE37101F0004515
S214080DF007D54FF0000EDCF1000C7EEB00006EEB22
S214080E000101B1F5801F1BD3B1F5001F0CD34908AB
S214080E105FEA30004FEA3C0C04F101044FEA445202
S214080E2012F5800F80F09A80BCF1004F08BF5FEA89
S214080E30500C50F1000041EB045141EA050130BD69
S214080E405FEA4C0C404141EB010111F4801FA4F10C
S214080E500104E9D191F0000F04BF01460020B1FA61
S214080E6081F308BF2033A3F10B03B3F120020CDA99
S214080E700C3208DD02F1140CC2F10C0201FA0CF077
S214080E8021FA02F10CE002F11402D8BFC2F1200CDC
S214080E9001FA02F120FA0CFCDCBF41EA0C01904092
S214080EA0E41AA2BF01EB0451294330BD6FEA0404DB
S214080EB01F3C1CDA0C340EDC04F11404C4F12002C6
S214080EC020FA04F001FA02F340EA030021FA04F3D8
S214080ED045EA030130BDC4F10C04C4F1200220FA2F
S214080EE002F001FA04F340EA0300294630BD21FA6D
S214080EF004F0294630BD94F0000F83F4801306BF33
S214080F0081F480110134013D4EE77FEA645C18BF26
S214080F107FEA655C29D094EA050F08BF90EA020FBD
S214080F2005D054EA000C04BF1946104630BD91EAB5
S214080F30030F1EBF0021002030BD5FEA545C05D1B8
S214080F404000494128BF41F0004130BD14F58004F7
S214080F503CBF01F5801130BD01F0004545F0FE416B
S214080F6041F470014FF0000030BD7FEA645C1ABFA0
S214080F70194610467FEA655C1CBF0B46024650EAD7
S214080F80013406BF52EA033591EA030F41F4002103
S214080F9030BD00BF90F0000F04BF0021704730B589
S214080FA04FF4806404F132044FF000054FF000015E
S214080FB050E700BF90F0000F04BF0021704730B51F
S214080FC04FF4806404F1320410F0004548BF4042F4
S214080FD04FF000013EE700BF42004FEAE2014FEA49
S214080FE031014FEA02701FBF12F07F4393F07F4F24
S214080FF081F06051704792F0000F14BF93F07F4F56
S214081000704730B54FF4607401F0004521F0004198
S21408101020E700BF50EA010208BF704730B54FF01E
S21408102000050AE050EA010208BF704730B511F023
S214081030004502D5404261EB41014FF4806404F15B
S21408104032045FEA915C3FF4DCAE4FF003025FEADD
S214081050DC0C18BF03325FEADC0C18BF033202EB65
S214081060DC02C2F1200300FA03FC20FA02F001FABF
S21408107003FE40EA0E0021FA02F11444C1E600BF5E
S21408108070B54FF0FF0C4CF4E06C1CEA11541DBF11
S2140810901CEA135594EA0C0F95EA0C0F00F0DEF8DC
S2140810A02C4481EA030621EA4C5123EA4C5350EAC1
S2140810B0013518BF52EA033541F4801143F4801312
S2140810C038D0A0FB02CE4FF00005E1FB02E506F0A3
S2140810D00042E0FB03E54FF00006E1FB03569CF0F8
S2140810E0000F18BF4EF0010EA4F1FF04B6F5007FFE
S2140810F064F5407404D25FEA4E0E6D4146EB060670
S21408110042EAC62141EA55514FEAC52040EA5E50F8
S2140811104FEACE2EB4F1FD0C88BFBCF5E06F1ED8A2
S214081120BEF1004F08BF5FEA500E50F1000041EBD9
S214081130045170BD06F0004646EA010140EA020086
S21408114081EA0301B4EB5C04C2BFD4EB0C0541EAA8
S214081150045170BD41F480114FF0000E013C00F3BD
S214081160AB8014F1360FDEBF002001F0004170BDE1
S214081170C4F10004203C35DA0C341BDC04F11404FA
S214081180C4F1200500FA05F320FA04F001FA05F286
S21408119040EA020001F0004221F0004110EBD37053
S2140811A021FA04F642EB06015EEA430E08BF20EA7F
S2140811B0D37070BDC4F10C04C4F1200500FA04F322
S2140811C020FA05F001FA04F240EA020001F00041B4
S2140811D010EBD37041F100015EEA430E08BF20EA27
S2140811E0D37070BDC4F1200500FA05F24EEA020E6F
S2140811F020FA04F301FA05F243EA020321FA04F09E
S21408120001F0004121FA04F220EA020000EBD37054
S2140812105EEA430E08BF20EAD37070BD94F0000F54
S2140812200FD101F00046400041EB010111F4801F88
S21408123008BF013CF7D041EA060195F0000F18BF39
S214081240704703F00046520043EB030313F4801F75
S21408125008BF013DF7D043EA0603704794EA0C0F2F
S2140812600CEA135518BF95EA0C0F0CD050EA410645
S21408127018BF52EA4306D1D181EA030101F00041C2
S2140812804FF0000070BD50EA410606BF10461946EA
S21408129052EA430619D094EA0C0F02D150EA0136F6
S2140812A013D195EA0C0F05D152EA03361CBF104637
S2140812B019460AD181EA030101F0004141F0FE41D6
S2140812C041F470014FF0000070BD41F0FE4141F45A
S2140812D0780170BD70B54FF0FF0C4CF4E06C1CEA5A
S2140812E011541DBF1CEA135594EA0C0F95EA0C0F0F
S2140812F000F0A7F8A4EB050481EA030E52EA0335CA
S2140813004FEA013100F088804FEA03334FF08055EA
S21408131045EA131343EA12634FEA022245EA111517
S21408132045EA10654FEA00260EF000419D4208BFC8
S214081330964244F1FD0404F5407402D25B084FEA75
S2140813403202B61A65EB03055B084FEA32024FF421
S21408135080104FF4002CB6EB020E75EB030E22BF7E
S214081360B61A754640EA0C005B084FEA3202B6EB3E
S214081370020E75EB030E22BFB61A754640EA5C00ED
S2140813805B084FEA3202B6EB020E75EB030E22BF7D
S214081390B61A754640EA9C005B084FEA3202B6EB7E
S2140813A0020E75EB030E22BFB61A754640EADC003D
S2140813B055EA060E18D04FEA051545EA16754FEA9F
S2140813C006164FEAC30343EA52734FEAC2025FEABD
S2140813D01C1CC0D111F4801F0BD141EA00014FF04C
S2140813E000004FF0004CB6E711F4801F04BF01431D
S2140813F00020B4F1FD0C88BFBCF5E06F3FF6AFAE39
S214081400B5EB030C04BFB6EB020C5FEA500C50F1C8
S214081410000041EB045170BD0EF0004E4EEA11314B
S21408142014EB5C04C2BFD4EB0C0541EA045170BD52
S21408143041F480114FF0000E013C90E645EA060E96
S2140814408DE60CEA135594EA0C0F08BF95EA0C0FC4
S2140814503FF43BAF94EA0C0F0AD150EA01347FF40C
S21408146034AF95EA0C0F7FF425AF104619462CE7E3
S21408147095EA0C0F06D152EA03353FF4FDAE104646
S214081480194622E750EA410618BF52EA43067FF497
S214081490C5AE50EA41047FF40DAF52EA43057FF427
S2140814A0EBAE12E74FEA4102B2F1E04324BFB3F5D0
S2140814B0001CDCF1FE5C0DD901F0004C4FEAC002BE
S2140814C04CEA5070B2F1004F40EB830008BF20F0A2
S2140814D00100704711F0804F21D113F13872BCBF5C
S2140814E001F00040704741F480114FEA5252C2F1B1
S2140814F01802C2F1200C10FA0CF320FA02F018BFFA
S21408150040F001004FEAC1234FEAD32303FA0CFC4C
S21408151040EA0C0023FA02F34FEA4303CCE77FEADB
S214081520625307D150EA01331EBF4FF0FE4040F425
S2140815304000704701F0004040F0FE4040F40000D4
S214081540704700BF80F0004002E000BF81F0004115
S21408155042001FBF5FEA410392EA030F7FEA226C4C
S2140815607FEA236C6AD04FEA1262D2EB1363C1BFDC
S214081570D218414048404140B8BF5B42192B88BF4B
S214081580704710F0004F40F4000020F07F4018BF6E
S214081590404211F0004F41F4000121F07F4118BF8E
S2140815A0494292EA030F3FD0A2F1010241FA03FC36
S2140815B010EB0C00C3F1200301FA03F100F000431E
S2140815C002D5494260EB4000B0F5000F13D3B0F1E6
S2140815D0807F06D340084FEA310102F10102FE2A55
S2140815E051D2B1F1004F40EBC25008BF20F00100C5
S2140815F040EA03007047490040EB000010F4000F73
S214081600A2F10102EDD1B0FA80FCACF1080CB2EB05
S2140816100C0200FA0CF0AABF00EBC2505242184364
S214081620BCBFD0401843704792F0000F81F4000109
S21408163006BF80F400000132013BB5E74FEA4103DC
S2140816407FEA226C18BF7FEA236C21D092EA030F48
S21408165004D092F0000F08BF0846704790EA010FC2
S2140816601CBF0020704712F07F4F04D1400028BFEF
S21408167040F00040704712F100723CBF00F50000D1
S214081680704700F0004343F0FE4040F40000704707
S2140816907FEA226216BF08467FEA236301464202B3
S2140816A006BF5FEA412390EA010F40F480007047C6
S2140816B04FF0000304E000BF10F0004348BF40426C
S2140816C05FEA000C08BF704743F0964301464FF0A8
S2140816D000001CE050EA010208BF70474FF0000304
S2140816E00AE000BF50EA010208BF704711F0004345
S2140816F002D5404261EB41015FEA010C02BF844615
S2140817000146002043F0B64308BFA3F18053A3F573
S2140817100003BCFA8CF2083AA3EBC25310DB01FABA
S21408172002FC634400FA02FCC2F12002BCF1004F3E
S21408173020FA02F243EB020008BF20F001007047CF
S21408174002F1200201FA02FCC2F1200250EA4C0023
S21408175021FA02F243EB020008BF20EADC70704769
S2140817604FF0FF0C1CEAD0521EBF1CEAD15392EA77
S2140817700C0F93EA0C0F6FD01A4480EA010C400253
S21408178018BF5FEA41211ED04FF0006343EA5010AD
S21408179043EA5111A0FB01310CF00040B1F5000FEF
S2140817A03EBF490041EAD3715B0040EA010062F19E
S2140817B07F02FD2A1DD8B3F1004F40EBC25008BF88
S2140817C020F00100704790F0000F0CF0004C08BFA6
S2140817D049024CEA502040EA51207F3AC2BFD2F173
S2140817E0FF0340EAC250704740F400004FF0000381
S2140817F0013A5DDC12F1190FDCBF00F000407047BB
S214081800C2F10002410021FA02F1C2F1200200FAF8
S21408181002FC5FEA310040F1000053EA4C0308BFBF
S21408182020EADC70704792F0000F00F0004C02BF10
S214081830400010F4000F013AF9D040EA0C0093F08B
S214081840000F01F0004C02BF490011F4000F013BE5
S214081850F9D041EA0C018FE70CEAD15392EA0C0F53
S21408186018BF93EA0C0F0AD030F0004C18BF31F0BE
S214081870004CD8D180EA010000F00040704790F094
S214081880000F17BF90F0004F084691F0000F91F038
S214081890004F14D092EA0C0F01D142020FD193EAFE
S2140818A00C0F03D14B0218BF084608D180EA010086
S2140818B000F0004040F0FE4040F40000704740F062
S2140818C0FE4040F4400070474FF0FF0C1CEAD05230
S2140818D01EBF1CEAD15392EA0C0F93EA0C0F69D08C
S2140818E0A2EB030280EA010C49024FEA402037D0F7
S2140818F04FF0805343EA111143EA10130CF00040EE
S2140819008B4238BF5B0042F17D024FF4000C8B42DD
S21408191024BF5B1A40EA0C00B3EB510F24BFA3EBBD
S214081920510340EA5C00B3EB910F24BFA3EB91038D
S21408193040EA9C00B3EBD10F24BFA3EBD10340EAE7
S214081940DC001B0118BF5FEA1C1CE0D1FD2A3FF62D
S21408195050AF8B4240EBC25008BF20F001007047E2
S2140819600CF0004C4CEA50207F32C2BFD2F1FF0385
S21408197040EAC250704740F400004FF00003013AB6
S21408198037E792F0000F00F0004C02BF400010F45A
S214081990000F013AF9D040EA0C0093F0000F01F06E
S2140819A0004C02BF490011F4000F013BF9D041EA90
S2140819B00C0195E70CEAD15392EA0C0F08D14202C3
S2140819C07FF47DAF93EA0C0F7FF470AF084676E796
S2140819D093EA0C0F04D14B023FF44CAF08466EE76F
S2140819E030F0004C18BF31F0004CCAD130F000423D
S2140819F07FF45CAF31F000437FF43CAF5FE700BF95
S214081A004FEA4002B2F1FE4F0FD34FF09E03B3EBFE
S214081A1012620DD94FEA002343F0004310F0004F3E
S214081A2023FA02F018BF404270474FF00000704794
S214081A3012F1610F01D1420205D110F0004008BF33
S214081A406FF0004070474FF00000704770B50F4EBB
S214081A500F4D761BB61018BF002405D0013455F874
S214081A60043B9847A642F9D10A4E0B4D00F0DCF825
S214081A70761BB61018BF002406D0013455F8043B70
S214081A809847A642F9D170BD70BD00BF341C080047
S214081A90341C08003C1C0800341C0800024B13B118
S214081AA0024800F005B8704700000000BD1A08009C
S214081AB0002301461A46184600F01EB838B50A4CE8
S214081AC00A4D641BA4100AD004F18043013B05EBC1
S214081AD08305013C55F804399847002CF9D1BDE830
S214081AE0384000F0ABB800BF4C1C0800481C080083
S214081AF0704700BF704700BF2DE9F8432C4D0646D7
S214081B00286898460F469146FFF7F2FF294B1C684F
S214081B10D4F84831002B3ED05A681F2A1CDC02F144
S214081B20010E76B1012103EB8204C4F88890D3F83D
S214081B30880191400843022EC3F88801C4F808813A
S214081B4023D00232C3F804E0286843F82270FFF76F
S214081B50D1FF0020BDE8F883174B0BB34FF4C870CD
S214081B60AFF300800346D8B10020D4F848114FF0F0
S214081B70010E586019600246C4F84831C3F8880157
S214081B80C3F88C01002EDCD0CCE7D3F88C010143D7
S214081B90C3F88C11D5E704F5A673C4F84831BBE73B
S214081BA02868FFF7A7FF4FF0FF30BDE8F88300BFAF
S214081BB030040020241C0800000000005B20000001
S214081BC02564202C000000005D200A0D000000009F
S214081BD043414E30206D657373616765206172728C
S214081BE06976656420696E206E6F6E2D7573656400
S214081BF0206D61696C626F780A0D0000286E756C3E
S214081C006C2900004552523A2055415254205258E9
S214081C10206275666665722069732066756C6C0A44
S214081C200D00000008000020F8B500BFF8BC08BC8E
S214081C309E4670479D1A080019010800F8B500BFAF
S210081C40F8BC08BC9E467047F50008007B
S214081C4C00093D000000000000000000F40200201F
S214081C5C5C030020C4030020000000000000000005
S214081C6C000000000000000000000000000000005B
S214081C7C000000000000000000000000000000004B
S214081C8C000000000000000000000000000000003B
S214081C9C000000000000000000000000000000002B
S214081CAC000000000000000000000000000000001B
S214081CBC000000000000000000000000000000000B
S214081CCC00000000000000000000000000000000FB
S214081CDC00000000000000000000000000000000EB
S214081CEC00000000000000000000000000000000DB
S214081CFC01000000000000000E33CDAB34126DE678
S214081D0CECDE05000B0000000000000000000000E0
S214081D1C00000000000000000000000000000000AA
S214081D2C000000000000000000000000000000009A
S214081D3C000000000000000000000000000000008A
S214081D4C000000000000000000000000000000007A
S20808207C9C04002093
S8040802F001
