:100000000C9438000C9455000C9455000C94550039
:100010000C9455000C9455000C9455000C9455000C
:100020000C9455000C9455000C9455000C945500FC
:100030000C9455000C9455000C9455000C945500EC
:100040000C9455000C9455000C9455000C945500DC
:100050000C9455000C9455000C9455000C945500CC
:100060000C9455000C9455000C9455000C945500BC
:1000700011241FBECFEFD4E0DEBFCDBF11E0A0E062
:10008000B1E0E2E7FFE002C005900D92A63BB107A8
:10009000D9F721E0A6EBB1E001C01D92A03CB20768
:1000A000E1F70E94C2020C94B7070C94000087B3DA
:1000B000816087BB83B7886083BF83B78F7B83BF33
:1000C00083B78F7D83BF83B7806183BF83B78B7F07
:1000D00083BF83B78D7F83BF83B7816083BF11BE2A
:1000E00008951092001420E030E004C090910014B4
:1000F0002F5F3F4F482F50E042175307BCF7892F1F
:100100000895282F30E02938310574F4C9019695F7
:10011000982F882797958795821B930B6EE870E040
:100120000E94F202CB0108952439310594F02E5833
:100130003109C9019695982F882797958795821B35
:10014000930B61E770E00E94F202CB0181589F4F50
:1001500008958FE790E008950F931F93CF93DF9357
:10016000CDB7DEB72C970FB6F894DEBF0FBECDBF6C
:100170008C0180E00E947100898789850E9481003E
:100180009A83898389819A81F8019183808381E0B0
:100190000E9471008A878A8590E09C838B838B8183
:1001A0009C81F8019383828382E00E9471008B8797
:1001B0008B8590E09E838D838D819E81F801958350
:1001C000848383E00E9471008C878C8590E09887FF
:1001D0008F838F819885F801978386832C960FB63D
:1001E000F894DEBF0FBECDBFDF91CF911F910F916D
:1001F00008950E943C020E94230208950F931F93CA
:10020000CF93DF938C01FC016081718176956795B6
:10021000769567957695679581E30E94EA01F801E6
:1002200060816295660F607E82E30E94EA01F801B8
:10023000628185E30E94EA01C0E0D0E009C0F801D4
:10024000EC0FFD1F63818C2F8A5C0E94EA012196CE
:10025000F801828190E0C817D9078CF30E94FF0152
:10026000DF91CF911F910F9108950F931F93CF931B
:10027000DF938C018CE20E94D90180FF35C082E6B9
:100280000E94D901C82F81E60E94D901C295C69566
:10029000C77090E0880F991F880F991F880F991FCA
:1002A0008C0F911DF8019183808385E60E94D9010E
:1002B000F8018283C0E0D0E009C08C2F8A590E94E7
:1002C000D901F801EC0FFD1F83832196F80182818B
:1002D00090E0C817D9078CF340E061E08CE20E94FF
:1002E000080280E090E002C081E090E0DF91CF91D1
:1002F0001F910F9108950F931F93CF93DF93CDB765
:10030000DEB766970FB6F894DEBF0FBECDBFFE0115
:1003100031962BE0DF011D922A95E9F79A838983B4
:100320006B834C83CF010E94FE00CE010C960E948D
:1003300035018C859D859F938F9386E091E09F93F7
:100340008F930E9465038E851F928F9383E291E0C5
:100350009F938F930E9465030FB6F894DEBF0FBE84
:10036000CDBF00E010E015C0EFE0F0E0EC0FFD1FA6
:10037000E00FF11F80811F928F9383E491E09F93A0
:100380008F930E9465030F5F1F4F0F900F900F9088
:100390000F908E8590E00817190734F366960FB614
:1003A000F894DEBF0FBECDBFDF91CF911F910F91AB
:1003B0000895CF93C82F88B318BA83E00E945102E2
:1003C0008C2F0E9451020E94550298B3906198BBF5
:1003D000CF910895CF93DF93D82FC62F88B318BA43
:1003E00082E00E9451028D2F0E9451028C2F0E94A8
:1003F000510288B3806188BBDF91CF91089588B3A3
:1004000018BA81E80E94510288B3806188BB0895C0
:100410001F93CF93DF93182FD62FC42F88B318BA0A
:1004200085E00E945102812F0E9451028D2F0E946F
:1004300051028C2F0E94510288B3806188BBDF91EA
:10044000CF911F91089540E460EE8FE00E94080272
:100450008EE00E94D901807E803421F083E591E016
:100460000E947B03089588B318BA80EC0E94510261
:1004700088B3806188BB08950E945A020E943302AB
:100480008DEE92E00197F1F700C000008EE00E942F
:10049000D901807E803821F08DE791E00E947B03B6
:1004A00008958FB9779BFECF089580E00E94510296
:1004B0008FB1089580EB87BB81E58DB90895809356
:1004C000001008958EEA0E945F0281EA0E945F0296
:1004D0008AED0E945F0282E10E945F0288EC0E9426
:1004E0005F0288EA0E945F028FE30E945F0285ED4F
:1004F0000E945F0280E80E945F0281E80E945F0222
:1005000080E50E945F0289ED0E945F0281E20E9405
:100510005F0280E20E945F0282E00E945F028BED38
:100520000E945F0280E30E945F028DEA0E945F02E8
:1005300080E00E945F0284EA0E945F0286EA0E94D5
:100540005F028FEA0E945F02089585B7806885BFC9
:1005500080B7806280BF08955D9BFECF8CB90895FF
:100560005F9BFECF8CB1089590BD89B988E18AB9AF
:100570008EE880BD089560EB72E08CEA92E00E9404
:100580001A030895CF93DF93CDB7DEB72A970FB63E
:10059000F894DEBF0FBECDBFCE0101960E94AC0025
:1005A0001A8619868FE190E00E94B4020E94BB0275
:1005B0000E94A5020E9457000E9462020E94F90058
:1005C00044E050E061E081E090E00E947B0180E047
:1005D00090E02A960FB6F894DEBF0FBECDBFDF9134
:1005E000CF91089597FB072E16F4009407D077FD5E
:1005F00009D00E94060307FC05D03EF49095819532
:100600009F4F0895709561957F4F0895AA1BBB1B5E
:1006100051E107C0AA1FBB1FA617B70710F0A61B02
:10062000B70B881F991F5A95A9F780959095BC0123
:10063000CD0108950F931F93CF93DF93009731F46B
:100640006115710519F480E090E03AC08B01EC016E
:100650006EE070E081E090E00E948C05FC01892B47
:1006600091F380E883830115110571F013870287E8
:1006700081E883838091B6019091B701892B21F4A1
:10068000F093B701E093B6012097C9F0D187C087F6
:100690008381826083838091B8019091B901892B15
:1006A00071F4F093B901E093B8018091BA0190918F
:1006B000BB01892B21F4F093BB01E093BA01CF0178
:1006C000DF91CF911F910F910895A0E0B0E0EBE68C
:1006D000F3E00C949007AE014B5F5F4FFA0161911C
:1006E0007191AF018091B8019091B9010E94AB0363
:1006F000E2E00C94AC070F931F93CF93DF93E0914C
:10070000B801F091B901238121FF1BC08C01D0E019
:10071000C0E0F80181918F016091B8017091B90139
:10072000DB011896ED91FC911997882331F009951A
:10073000892B79F3DFEFCFEFECCF8AE00995892B96
:1007400019F08FEF9FEF02C08D2F9C2FDF91CF917B
:100750001F910F910895ABE0B0E0E1EBF3E00C9452
:1007600080076C017B018A01FC011782168283815C
:1007700081FFCCC1CE0101963C01F6019381F701C6
:1007800093FD859193FF81917F01882309F4BAC17C
:10079000853239F493FD859193FF81917F018532F4
:1007A00029F4B60190E00E94E606E7CF912C212CB7
:1007B000312CFFE1F315D8F08B3279F038F4803228
:1007C00079F08332A1F4232D20611DC08D3261F0B8
:1007D000803369F4232D216016C0832D8260382E6A
:1007E000E32DE4603E2E2AC0F32DF8601DC037FCD7
:1007F0002DC020ED280F2A3040F08E32B9F436FC9F
:1008000081C1232D2064322E19C036FE06C08AE035
:10081000989E200D1124922E11C0EAE02E9E200DEC
:100820001124222EF32DF0623F2E08C08C3621F4C5
:10083000832D8068382E02C0883641F4F70193FD7D
:10084000859193FF81917F018111B3CF982F9F7D77
:100850009554933028F40C5F1F4F9FE399830DC08C
:10086000833631F0833771F0833509F059C021C0E8
:10087000F801808189830E5F1F4F88248394912C17
:10088000530113C02801F2E04F0E511CF801A08063
:10089000B18036FE03C0692D70E002C06FEF7FEFBC
:1008A000C5010E94DB064C018201F32DFF773F2E2C
:1008B00016C0280122E0420E511CF801A080B18030
:1008C00036FE03C0692D70E002C06FEF7FEFC501F7
:1008D0000E94C9064C01F32DF0683F2E820133FCC3
:1008E0001BC0822D90E088169906B0F4B60180E214
:1008F00090E00E94E6062A94F4CFF50137FC85913A
:1009000037FE81915F01B60190E00E94E60621105A
:100910002A9421E0821A91088114910471F7E8C0A9
:10092000843611F0893641F5F80137FE07C0608141
:100930007181828193810C5F1F4F08C0608171813A
:10094000072E000C880B990B0E5F1F4FF32DFF76BF
:100950003F2E97FF09C090958095709561957F4FC8
:100960008F4F9F4FF0683F2E2AE030E0A3010E9496
:100970002207882E861845C0853731F4232D2F7E17
:10098000B22E2AE030E025C0932D997FB92E8F3604
:10099000C1F018F4883579F0B5C0803719F0883780
:1009A00021F0B0C0E92FE061BE2EB4FE0DC0FB2DDA
:1009B000F460BF2E09C034FE0AC0292F2660B22E73
:1009C00006C028E030E005C020E130E002C020E1B0
:1009D00032E0F801B7FE07C06081718182819381A6
:1009E0000C5F1F4F06C06081718180E090E00E5F58
:1009F0001F4FA3010E942207882E8618FB2DFF7728
:100A00003F2E36FE0DC0232D2E7FA22E891458F4C2
:100A100034FE0BC032FC09C0832D8E7EA82E05C08B
:100A2000B82CA32C03C0B82C01C0B92CA4FE0FC055
:100A3000FE01E80DF11D8081803321F49A2D997E0D
:100A4000A92E09C0A2FE06C0B394B39404C08A2D97
:100A5000867809F0B394A3FC11C0A0FE06C0B214BE
:100A600088F4280C922C9B180EC0B21460F4B601C6
:100A700080E290E00E94E606B394F7CFB21418F437
:100A80002B1802C0982C212CA4FE10C0B60180E3C4
:100A900090E00E94E606A2FE17C0A1FC03C088E712
:100AA00090E002C088E590E0B6010CC08A2D8678FF
:100AB00059F0A1FE02C08BE201C080E2A7FC8DE2EA
:100AC000B60190E00E94E606891438F4B60180E38E
:100AD00090E00E94E6069A94F7CF8A94F301E80D1D
:100AE000F11D8081B60190E00E94E6068110F5CFED
:100AF000222009F442CEB60180E290E00E94E60690
:100B00002A94F6CFF6018681978102C08FEF9FEF7E
:100B10002B96E2E10C949C070F931F93CF93DF93E6
:100B2000869F8001879F100D969F100D1124C8018C
:100B30000E94A805EC01009729F0A80160E070E090
:100B40000E94D406CE01DF91CF911F910F9108959D
:100B50000F931F93CF93DF938230910510F482E0BF
:100B600090E0E091BE01F091BF0120E030E0A0E014
:100B7000B0E0309719F1408151810281138148170B
:100B80005907C8F08417950769F4109731F0129649
:100B90000C93129713961C9327C00093BE011093D9
:100BA000BF0122C02115310519F04217530718F46F
:100BB0009A01BD01EF01DF01F801DBCF21153105FD
:100BC000F9F0281B390B2430310580F48A819B8190
:100BD0006115710521F0FB019383828304C090931A
:100BE000BF018093BE01FE01329644C0FE01E20FB8
:100BF000F31F8193919322503109398328833AC09E
:100C00002091BC013091BD01232B41F420910201C0
:100C1000309103013093BD012093BC01209100016C
:100C2000309101012115310541F42DB73EB74091B6
:100C3000040150910501241B350BE091BC01F0919A
:100C4000BD01E217F307A0F42E1B3F0B281739074D
:100C500078F0AC014E5F5F4F2417350748F04E0F18
:100C60005F1F5093BD014093BC018193919302C0DB
:100C7000E0E0F0E0CF01DF91CF911F910F91089557
:100C8000CF93DF93009709F481C0FC013297138260
:100C90001282A091BE01B091BF01109781F4208112
:100CA0003181820F931F2091BC013091BD01281723
:100CB000390751F5F093BD01E093BC0167C0ED0128
:100CC00020E030E0CE17DF0740F44A815B819E01CF
:100CD00041155105F1F0EA01F5CFD383C28340817C
:100CE0005181840F951FC817D90759F488819981BC
:100CF000840F951F0296918380838A819B819383C1
:100D000082832115310529F4F093BF01E093BE01E0
:100D10003DC0E901FB83EA8349915991C40FD51F76
:100D2000EC17FD0761F480819181840F951F029675
:100D3000E90199838883828193819B838A83E0E0A0
:100D4000F0E012968D919C911397009719F0FD0198
:100D5000DC01F7CF8D919C9111979D012E5F3F4F44
:100D6000820F931F2091BC013091BD0128173907D4
:100D700069F4309729F41092BF011092BE0102C0AD
:100D800013821282B093BD01A093BC01DF91CF9179
:100D90000895FC010590615070400110D8F78095CE
:100DA00090958E0F9F1F0895DC0101C06D934150F7
:100DB0005040E0F70895FC0161507040019001102F
:100DC000D8F7809590958E0F9F1F08950F931F93CE
:100DD000CF93DF93FB01238121FD03C08FEF9FEFB2
:100DE0002CC022FF16C046815781248135814217CD
:100DF000530744F4A081B1819D012F5F3F4F3183A0
:100E000020838C93268137812F5F3F4F3783268342
:100E100014C08B01EC01FB010084F185E02D0995E4
:100E2000892BE1F6D80116968D919C911797019622
:100E300017969C938E931697CE01DF91CF911F91B9
:100E40000F910895FA01AA27283051F1203181F13C
:100E5000E8946F936E7F6E5F7F4F8F4F9F4FAF4FC2
:100E6000B1E03ED0B4E03CD0670F781F891F9A1FD5
:100E7000A11D680F791F8A1F911DA11D6A0F711D89
:100E8000811D911DA11D20D009F468943F912AE095
:100E9000269F11243019305D3193DEF6CF0108957D
:100EA000462F4770405D4193B3E00FD0C9F7F6CFAE
:100EB000462F4F70405D4A3318F0495D31FD405276
:100EC000419302D0A9F7EACFB4E0A695979587950C
:100ED00077956795BA95C9F70097610571050895EB
:100EE0009B01AC010A2E0694579547953795279597
:100EF000BA95C9F7620F731F841F951FA01D08952F
:100F00002F923F924F925F926F927F928F929F9219
:100F1000AF92BF92CF92DF92EF92FF920F931F9307
:100F2000CF93DF93CDB7DEB7CA1BDB0B0FB6F894B8
:100F3000DEBF0FBECDBF09942A88398848885F84F8
:100F40006E847D848C849B84AA84B984C884DF8069
:100F5000EE80FD800C811B81AA81B981CE0FD11D4D
:100F60000FB6F894DEBF0FBECDBFED010895F89423
:020F7000FFCFB1
:100F72000000C001200074686520726563656976AF
:100F820065642049442069733A2025687520200D44
:100F9200200A00746865207265636569766564205D
:100FA2006C656E6774682069733A20257520200D80
:100FB200200A00636861722069733A202575200D4A
:100FC200200A004552524F523A206661696C6564AC
:100FD20020746F20736574206D6F646520746F20B8
:100FE2006C6F6F706261636B2E200D200045525250
:100FF2004F523A204D435032353135206E6F7420B6
:10100200696E20636F6E66696775726174696F6E6F
:10101200206D6F6465206166746572207265736508
:06102200742E200D0000F9
:00000001FF
