:100000000C9438000C9455000C9455000C94550039
:100010000C9455000C9455000C9455000C9455000C
:100020000C9455000C9455000C9455000C945500FC
:100030000C9455000C9455000C9455000C945500EC
:100040000C9455000C9455000C9455000C945500DC
:100050000C9455000C9455000C9455000C945500CC
:100060000C9455000C9455000C9455000C945500BC
:1000700011241FBECFEFD4E0DEBFCDBF11E0A0E062
:10008000B1E0E0ECF8E002C005900D92A839B107AC
:10009000D9F721E0A8E9B1E001C01D92A23AB20768
:1000A000E1F70E9435010C945E040C94000087B3C4
:1000B000816087BB83B7886083BF83B78F7B83BF33
:1000C00083B78F7D83BF83B7806183BF83B78B7F07
:1000D00083BF83B78D7F83BF83B7816083BF11BE2A
:1000E00008951092001420E030E004C090910014B4
:1000F0002F5F3F4F482F50E042175307BCF7892F1F
:100100000895282F30E02938310574F4C9019695F7
:10011000982F882797958795821B930B6EE870E040
:100120000E947702CB0108952439310594F02E58AE
:100130003109C9019695982F882797958795821B35
:10014000930B61E770E00E947702CB0181589F4FCB
:1001500008958FE790E008950F931F93CF93DF9357
:10016000CDB7DEB72C970FB6F894DEBF0FBECDBF6C
:100170008C0180E00E947100898789850E9481003E
:100180009A83898389819A81F8019183808381E0B0
:100190000E9471008A878A8590E09C838B838B8183
:1001A0009C81F8019383828382E00E9471008B8797
:1001B0008B8590E09E838D838D819E81F801958350
:1001C000848383E00E9471008C878C8590E09887FF
:1001D0008F838F819885F801978386832C960FB63D
:1001E000F894DEBF0FBECDBFDF91CF911F910F916D
:1001F00008950E94E5010E94BD0108950F931F9389
:10020000CF93DF938C01FC016081718176956795B6
:10021000769567957695679581E30E948401F8014C
:1002200060816295660F607E82E30E948401F8011E
:10023000628185E30E948401C0E0D0E009C0F8013A
:10024000EC0FFD1F63818C2F8A5C0E948401219634
:10025000F801828190E0C817D9078CF30E949901B8
:10026000DF91CF911F910F9108951F93CF93DF934B
:10027000CDB7DEB765970FB6F894DEBF0FBECDBF22
:10028000CE0101960E94AC001A8619868FE190E09B
:100290000E9469020E9470020E945A020E94570046
:1002A0000E9409020E94F9001FE60E94CD0182E02F
:1002B00090E09C878B8784E08D871E878CE68F87F4
:1002C00085E6888B198BCE010B960E94FE0080E09C
:1002D00090E065960FB6F894DEBF0FBECDBFDF91FC
:1002E000CF911F910895CF93C82F88B318BA83E098
:1002F0000E944C028C2F0E944C020E94500298B324
:10030000906198BBCF910895CF93DF93D82FC62FDC
:1003100088B318BA82E00E944C028D2F0E944C02D2
:100320008C2F0E944C0288B3806188BBDF91CF91F3
:10033000089588B318BA81E80E944C0288B380619E
:1003400088BB08951F93CF93DF93182FD62FC42F08
:1003500088B318BA85E00E944C02812F0E944C029B
:100360008D2F0E944C028C2F0E944C0288B380611A
:1003700088BBDF91CF911F91089540E460EE8FE03C
:100380000E94A2018EE00E947301807E803421F0E1
:1003900086E091E00E94EA02089540E060EE8FE07E
:1003A0000E94A2018EE00E947301807E21F080E312
:1003B00091E00E94EA02089588B318BA80EC0E9486
:1003C0004C0288B3806188BB08950E9455020E9448
:1003D000DC018DEE92E00197F1F700C000008EE0A5
:1003E0000E947301807E803821F088E591E00E94B0
:1003F000EA0261EC8AE20E94840169EE89E20E94CD
:10040000840166E088E20E948401089580930010D0
:1004100008958EEA0E94060281EA0E9406028AED91
:100420000E94060282E10E94060288EC0E940602F7
:1004300088EA0E9406028FE30E94060285ED0E9470
:10044000060280E80E94060281E80E94060280E51A
:100450000E94060289ED0E94060281E20E940602C5
:1004600080E20E94060282E00E9406028BED0E945A
:10047000060280E30E9406028DEA0E94060280E0E6
:100480000E94060284EA0E94060286EA0E94060290
:100490008FEA0E94060208958FB9779BFECF0895D8
:1004A00080E00E944C028FB1089580EB87BB81E50C
:1004B0008DB9089585B7806885BF80B7806280BF99
:1004C00008955D9BFECF8CB908955F9BFECF8CB1E4
:1004D000089590BD89B988E18AB98EE880BD0895F4
:1004E00065E672E081E692E00E949F02089597FB24
:1004F000072E16F4009407D077FD09D00E948B02D6
:1005000007FC05D03EF4909581959F4F0895709516
:1005100061957F4F0895AA1BBB1B51E107C0AA1F1D
:10052000BB1FA617B70710F0A61BB70B881F991F94
:100530005A95A9F780959095BC01CD0108950F9328
:100540001F93CF93DF93009731F46115710519F470
:1005500080E090E03AC08B01EC016EE070E081E059
:1005600090E00E941A03FC01892B91F380E88383B9
:100570000115110571F01387028781E8838380914B
:10058000980190919901892B21F4F0939901E093BE
:1005900098012097C9F0D187C087838182608383C7
:1005A00080919A0190919B01892B71F4F0939B01AA
:1005B000E0939A0180919C0190919D01892B21F4F7
:1005C000F0939D01E0939C01CF01DF91CF911F91AA
:1005D0000F9108950F931F93CF93DF93E0919A01AA
:1005E000F0919B01238121FF1BC08C01D0E0C0E072
:1005F000F80181918F0160919A0170919B01DB015B
:100600001896ED91FC911997882331F00995892B63
:1006100079F3DFEFCFEFECCF8AE00995892B19F062
:100620008FEF9FEF02C08D2F9C2FDF91CF911F91F5
:100630000F9108950F931F93CF93DF93869F8001AF
:10064000879F100D969F100D1124C8010E9436033C
:10065000EC01009729F0A80160E070E00E945704C7
:10066000CE01DF91CF911F910F9108950F931F93AA
:10067000CF93DF938230910510F482E090E0E09117
:10068000A001F091A10120E030E0A0E0B0E03097BF
:1006900019F1408151810281138148175907C8F02F
:1006A0008417950769F4109731F012960C931297FE
:1006B00013961C9327C00093A0011093A10122C0A0
:1006C0002115310519F04217530718F49A01BD019D
:1006D000EF01DF01F801DBCF21153105F9F0281B0F
:1006E000390B2430310580F48A819B8161157105B5
:1006F00021F0FB019383828304C09093A101809336
:10070000A001FE01329644C0FE01E20FF31F819367
:10071000919322503109398328833AC020919E0158
:1007200030919F01232B41F420910201309103016C
:1007300030939F0120939E0120910001309101018F
:100740002115310541F42DB73EB740910401509178
:100750000501241B350BE0919E01F0919F01E217EA
:10076000F307A0F42E1B3F0B2817390778F0AC01D4
:100770004E5F5F4F2417350748F04E0F5F1F5093B1
:100780009F0140939E018193919302C0E0E0F0E0CD
:10079000CF01DF91CF911F910F910895CF93DF93F8
:1007A000009709F481C0FC01329713821282A09154
:1007B000A001B091A101109781F420813181820FB5
:1007C000931F20919E0130919F012817390751F501
:1007D000F0939F01E0939E0167C0ED0120E030E0BF
:1007E000CE17DF0740F44A815B819E014115510518
:1007F000F1F0EA01F5CFD383C28340815181840FA8
:10080000951FC817D90759F488819981840F951FBE
:100810000296918380838A819B81938382832115B1
:10082000310529F4F093A101E093A0013DC0E90155
:10083000FB83EA8349915991C40FD51FEC17FD073B
:1008400061F480819181840F951F0296E90199835B
:100850008883828193819B838A83E0E0F0E0129613
:100860008D919C911397009719F0FD01DC01F7CF52
:100870008D919C9111979D012E5F3F4F820F931F89
:1008800020919E0130919F012817390769F4309714
:1008900029F41092A1011092A00102C013821282C9
:1008A000B0939F01A0939E01DF91CF910895DC0149
:1008B00001C06D9341505040E0F70895F894FFCF88
:1008C0000000A20120004552524F523A2066616951
:1008D0006C656420746F20736574206D6F6465208F
:1008E000746F206C6F6F706261636B2E200D20003F
:1008F0004552524F523A206661696C656420746FAC
:1009000020736574206D6F646520746F206E6F7244
:100910006D616C2E200D20004552524F523A204DF1
:10092000435032353135206E6F7420696E20636F0D
:100930006E66696775726174696F6E206D6F64654C
:100940002061667465722072657365742E200D00D7
:08095000257520200D200A008E
:00000001FF
