S01700004763634170706C69636174696F6E322E737265635A
S11300000C9438000C9455000C9406010C94550083
S11300100C9455000C9455000C9455000C94550008
S11300200C9455000C9455000C9455000C945500F8
S11300300C9455000C9455000C9455000C945500E8
S11300400C9455000C9455000C9455000C945500D8
S11300500C9455000C9455000C9455000C945500C8
S11300600C9455000C9455000C9455000C945500B8
S113007011241FBECFEFD4E0DEBFCDBF11E0A0E05E
S1130080B1E0E2EAFEE002C005900D92A83BB107A0
S1130090D9F721E0A8EBB1E001C01D92A23CB20760
S11300A0E1F70E9471010C944F070C94000087B390
S11300B0816087BB83B7886083BF83B78F7B83BF2F
S11300C083B78F7D83BF83B7806183BF83B78B7F03
S11300D083BF83B78D7F83BF83B7816083BF11BE26
S11300E008951092001420E030E004C090910014B0
S11300F02F5F3F4F482F50E042175307BCF7892F1B
S11301000895282F30E02938310574F4C9019695F3
S1130110982F882797958795821B930B6EE870E03C
S11301200E948A02CB0108952439310594F02E5897
S11301303109C9019695982F882797958795821B31
S1130140930B61E770E00E948A02CB0181589F4FB4
S113015008958FE790E008950F931F93CF93DF9353
S1130160CDB7DEB72C970FB6F894DEBF0FBECDBF68
S11301708C0180E00E947100898789850E9481003A
S11301809A83898389819A81F801808381E00E941E
S113019071008A878A8590E09C838B838B819C8104
S11301A0F801818382E00E9471008B878B8590E047
S11301B09E838D838D819E81F801828383E00E94DA
S11301C071008C878C8590E098878F838F819885C8
S11301D0F80183832C960FB6F894DEBF0FBECDBF13
S11301E0DF91CF911F910F91089581B3877F81BBD8
S11301F082B3886082BB85B7886085BF85B78B7FF3
S113020085BF8BB780688BBF789408951F920F9237
S11302100FB60F9211242F933F934F935F936F93D5
S11302207F938F939F93AF93BF93EF93FF930E941A
S11302306E010E94370182E191E09F938F930E94A7
S1130240FD020F900F90FF91EF91BF91AF919F919D
S11302508F917F916F915F914F913F912F910F906B
S11302600FBE0F901F9018950E94F30108950F93ED
S11302701F93CF93DF938C01FC016081718176958C
S11302806795769567957695679581E30E94A201B7
S1130290F80160816295660F607E82E30E94A2018C
S11302A0F801628185E30E94A201C0E0D0E009C0A8
S11302B0F801EC0FFD1F63818C2F8A5C0E94A20160
S11302C02196F801828190E0C817D9078CF30E9427
S11302D0B701DF91CF911F910F91089580E090E0D5
S11302E00895CF93DF9300D000D000D0CDB7DEB710
S11302F0CE0101960E94AC001E821D828FE190E027
S11303000E947C020E9483020E946D020E94570098
S11303100E941C020E9434010E94DB010E94F5002D
S1130320FFCFCF93C82F88B318BA83E00E945F022F
S11303308C2F0E945F020E94630298B3906198BB65
S1130340CF910895CF93DF93D82FC62F88B318BACF
S113035082E00E945F028D2F0E945F028C2F0E9418
S11303605F0288B3806188BBDF91CF91089588B321
S113037018BA81E80E945F0288B3806188BB08953F
S11303801F93CF93DF93182FD62FC42F88B318BA97
S113039085E00E945F02812F0E945F028D2F0E94E0
S11303A05F028C2F0E945F0288B3806188BBDF915B
S11303B0CF911F91089540E060EE8FE00E94C0014C
S11303C08EE00E949101807E21F08FE491E00E94F2
S11303D01303089588B318BA80EC0E945F0288B3AF
S11303E0806188BB08950E9468020E94EA018DEE34
S11303F092E00197F1F700C0000040E860EE8FE062
S11304000E94C0018EE00E949101807E803821F01C
S113041087E791E00E94130361EC8AE20E94A20143
S113042069EE89E20E94A20166E088E20E94A201CC
S113043008958093001008958EEA0E94190281EABB
S11304400E9419028AED0E94190282E10E94190297
S113045088EC0E94190288EA0E9419028FE30E9424
S1130460190285ED0E94190280E80E94190281E8B0
S11304700E94190280E50E94190289ED0E94190266
S113048081E20E94190280E20E94190282E00E9425
S113049019028BED0E94190280E30E9419028DEA71
S11304A00E94190280E00E94190284EA0E94190243
S11304B086EA0E9419028FEA0E94190208958FB9F0
S11304C0779BFECF089580E00E945F028FB108956C
S11304D080EB87BB81E58DB9089585B7806885BFBA
S11304E080B7806280BF08955D9BFECF8CB908956C
S11304F05F9BFECF8CB1089590BD89B988E18AB91C
S11305008EE880BD089568E772E084E792E00E9477
S1130510B202089597FB072E16F4009407D077FDD6
S113052009D00E949E0207FC05D03EF49095819567
S11305309F4F0895709561957F4F0895AA1BBB1B2B
S113054051E107C0AA1FBB1FA617B70710F0A61BCF
S1130550B70B881F991F5A95A9F780959095BC01F0
S1130560CD0108950F931F93CF93DF93009731F438
S11305706115710519F480E090E03AC08B01EC013B
S11305806EE070E081E090E00E942405FC01892B7C
S113059091F380E883830115110571F013870287B5
S11305A081E883838091B8019091B901892B21F46A
S11305B0F093B901E093B8012097C9F0D187C087BF
S11305C08381826083838091BA019091BB01892BDE
S11305D071F4F093BB01E093BA018091BC01909156
S11305E0BD01892B21F4F093BD01E093BC01CF013F
S11305F0DF91CF911F910F910895A0E0B0E0E3E067
S1130600F3E00C942807AE014B5F5F4FFA01619150
S11306107191AF018091BA019091BB010E94430393
S1130620E2E00C9444070F931F93CF93DF93E09180
S1130630BA01F091BB01238121FF1BC08C01D0E0E2
S1130640C0E0F80181918F016091BA017091BB0102
S1130650DB011896ED91FC911997882331F00995E7
S1130660892B79F3DFEFCFEFECCF8AE00995892B63
S113067019F08FEF9FEF02C08D2F9C2FDF91CF9148
S11306801F910F910895ABE0B0E0E9E4F3E00C941E
S113069018076C017B018A01FC0117821682838191
S11306A081FFCCC1CE0101963C01F6019381F70193
S11306B093FD859193FF81917F01882309F4BAC149
S11306C0853239F493FD859193FF81917F018532C1
S11306D029F4B60190E00E947E06E7CF912C212CEC
S11306E0312CFFE1F315D8F08B3279F038F48032F5
S11306F079F08332A1F4232D20611DC08D3261F085
S1130700803369F4232D216016C0832D8260382E36
S1130710E32DE4603E2E2AC0F32DF8601DC037FCA3
S11307202DC020ED280F2A3040F08E32B9F436FC6B
S113073081C1232D2064322E19C036FE06C08AE002
S1130740989E200D1124922E11C0EAE02E9E200DB9
S11307501124222EF32DF0623F2E08C08C3621F492
S1130760832D8068382E02C0883641F4F70193FD4A
S1130770859193FF81917F018111B3CF982F9F7D44
S11307809554933028F40C5F1F4F9FE399830DC059
S1130790833631F0833771F0833509F059C021C0B5
S11307A0F801808189830E5F1F4F88248394912CE4
S11307B0530113C02801F2E04F0E511CF801A08030
S11307C0B18036FE03C0692D70E002C06FEF7FEF89
S11307D0C5010E9473064C018201F32DFF773F2E61
S11307E016C0280122E0420E511CF801A080B180FD
S11307F036FE03C0692D70E002C06FEF7FEFC501C4
S11308000E9461064C01F32DF0683F2E820133FCF7
S11308101BC0822D90E088169906B0F4B60180E2E0
S113082090E00E947E062A94F4CFF50137FC85916E
S113083037FE81915F01B60190E00E947E0621108F
S11308402A9421E0821A91088114910471F7E8C076
S1130850843611F0893641F5F80137FE07C060810E
S11308607181828193810C5F1F4F08C06081718107
S1130870072E000C880B990B0E5F1F4FF32DFF768C
S11308803F2E97FF09C090958095709561957F4F95
S11308908F4F9F4FF0683F2E2AE030E0A3010E9463
S11308A0BA06882E861845C0853731F4232D2F7E4D
S11308B0B22E2AE030E025C0932D997FB92E8F36D1
S11308C0C1F018F4883579F0B5C0803719F088374D
S11308D021F0B0C0E92FE061BE2EB4FE0DC0FB2DA7
S11308E0F460BF2E09C034FE0AC0292F2660B22E40
S11308F006C028E030E005C020E130E002C020E17D
S113090032E0F801B7FE07C0608171818281938172
S11309100C5F1F4F06C06081718180E090E00E5F24
S11309201F4FA3010E94BA06882E8618FB2DFF775D
S11309303F2E36FE0DC0232D2E7FA22E891458F48F
S113094034FE0BC032FC09C0832D8E7EA82E05C058
S1130950B82CA32C03C0B82C01C0B92CA4FE0FC022
S1130960FE01E80DF11D8081803321F49A2D997EDA
S1130970A92E09C0A2FE06C0B394B39404C08A2D64
S1130980867809F0B394A3FC11C0A0FE06C0B2148B
S113099088F4280C922C9B180EC0B21460F4B60193
S11309A080E290E00E947E06B394F7CFB21418F46C
S11309B02B1802C0982C212CA4FE10C0B60180E391
S11309C090E00E947E06A2FE17C0A1FC03C088E747
S11309D090E002C088E590E0B6010CC08A2D8678CC
S11309E059F0A1FE02C08BE201C080E2A7FC8DE2B7
S11309F0B60190E00E947E06891438F4B60180E3C3
S1130A0090E00E947E069A94F7CF8A94F301E80D51
S1130A10F11D8081B60190E00E947E068110F5CF21
S1130A20222009F442CEB60180E290E00E947E06C4
S1130A302A94F6CFF6018681978102C08FEF9FEF4B
S1130A402B96E2E10C9434070F931F93CF93DF931B
S1130A50869F8001879F100D969F100D1124C80159
S1130A600E944005EC01009729F0A80160E070E0C5
S1130A700E946C06CE01DF91CF911F910F910895D2
S1130A800F931F93CF93DF938230910510F482E08C
S1130A9090E0E091C001F091C10120E030E0A0E0DD
S1130AA0B0E0309719F140815181028113814817D8
S1130AB05907C8F08417950769F4109731F0129616
S1130AC00C93129713961C9327C00093C0011093A4
S1130AD0C10122C02115310519F04217530718F43A
S1130AE09A01BD01EF01DF01F801DBCF21153105CA
S1130AF0F9F0281B390B2430310580F48A819B815D
S1130B006115710521F0FB019383828304C09093E6
S1130B10C1018093C001FE01329644C0FE01E20F80
S1130B20F31F8193919322503109398328833AC06A
S1130B302091BE013091BF01232B41F42091020189
S1130B40309103013093BF012093BE012091000135
S1130B50309101012115310541F42DB73EB7409183
S1130B60040150910501241B350BE091BE01F09165
S1130B70BF01E217F307A0F42E1B3F0B2817390718
S1130B8078F0AC014E5F5F4F2417350748F04E0FE5
S1130B905F1F5093BF014093BE018193919302C0A4
S1130BA0E0E0F0E0CF01DF91CF911F910F91089524
S1130BB0CF93DF93009709F481C0FC01329713822D
S1130BC01282A091C001B091C101109781F42081DB
S1130BD03181820F931F2091BE013091BF012817EC
S1130BE0390751F5F093BF01E093BE0167C0ED01F1
S1130BF020E030E0CE17DF0740F44A815B819E019C
S1130C0041155105F1F0EA01F5CFD383C283408148
S1130C105181840F951FC817D90759F48881998188
S1130C20840F951F0296918380838A819B8193838D
S1130C3082832115310529F4F093C101E093C001A9
S1130C403DC0E901FB83EA8349915991C40FD51F43
S1130C50EC17FD0761F480819181840F951F029642
S1130C60E90199838883828193819B838A83E0E06D
S1130C70F0E012968D919C911397009719F0FD0165
S1130C80DC01F7CF8D919C9111979D012E5F3F4F11
S1130C90820F931F2091BE013091BF01281739079D
S1130CA069F4309729F41092C1011092C00102C076
S1130CB013821282B093BF01A093BE01DF91CF9142
S1130CC00895FC010590615070400110D8F780959B
S1130CD090958E0F9F1F0895DC0101C06D934150C4
S1130CE05040E0F70895FC016150704001900110FC
S1130CF0D8F7809590958E0F9F1F08950F931F939B
S1130D00CF93DF93FB01238121FD03C08FEF9FEF7E
S1130D102CC022FF16C04681578124813581421799
S1130D20530744F4A081B1819D012F5F3F4F31836C
S1130D3020838C93268137812F5F3F4F378326830F
S1130D4014C08B01EC01FB010084F185E02D0995B1
S1130D50892BE1F6D80116968D919C9117970196EF
S1130D6017969C938E931697CE01DF91CF911F9186
S1130D700F910895FA01AA27283051F1203181F109
S1130D80E8946F936E7F6E5F7F4F8F4F9F4FAF4F8F
S1130D90B1E03ED0B4E03CD0670F781F891F9A1FA2
S1130DA0A11D680F791F8A1F911DA11D6A0F711D56
S1130DB0811D911DA11D20D009F468943F912AE062
S1130DC0269F11243019305D3193DEF6CF0108954A
S1130DD0462F4770405D4193B3E00FD0C9F7F6CF7B
S1130DE0462F4F70405D4A3318F0495D31FD405243
S1130DF0419302D0A9F7EACFB4E0A69597958795D9
S1130E0077956795BA95C9F70097610571050895B7
S1130E109B01AC010A2E0694579547953795279563
S1130E20BA95C9F7620F731F841F951FA01D0895FB
S1130E302F923F924F925F926F927F928F929F92E6
S1130E40AF92BF92CF92DF92EF92FF920F931F93D4
S1130E50CF93DF93CDB7DEB7CA1BDB0B0FB6F89485
S1130E60DEBF0FBECDBF09942A88398848885F84C5
S1130E706E847D848C849B84AA84B984C884DF8036
S1130E80EE80FD800C811B81AA81B981CE0FD11D1A
S1130E900FB6F894DEBF0FBECDBFED010895F894F0
S1050EA0FFCF7E
S1130EA20000C2012000256400202C20005D200DDA
S1130EB2200049207468696E6B20692073656E7422
S1130EC220697421004552524F523A206661696C7E
S1130ED2656420746F20736574206D6F646520747B
S1130EE26F206C6F6F706261636B2E200D20004562
S1130EF252524F523A206661696C656420746F20C5
S1130F02736574206D6F646520746F206E6F726DEB
S1130F12616C2E200D20004552524F523A204D430F
S1130F225032353135206E6F7420696E20636F6ED6
S1130F3266696775726174696F6E206D6F6465208E
S1130F4261667465722072657365742E200D0025C6
S10B0F527520200D200A0000A7
S9030000FC
