S01700004763634170706C69636174696F6E322E737265635A
S11300000C9438000C9455000C9455000C94550035
S11300100C9455000C9455000C9455000C94550008
S11300200C9455000C9455000C9455000C945500F8
S11300300C9455000C9455000C9455000C945500E8
S11300400C9455000C9455000C9455000C945500D8
S11300500C9455000C9455000C9455000C945500C8
S11300600C9455000C9455000C9455000C945500B8
S113007011241FBECFEFD4E0DEBFCDBF11E0A0E05E
S1130080B1E0E0E4F5E002C005900D92A834B107B8
S1130090D9F721E0A8E4B1E001C01D92A235B2076E
S11300A0E1F70E946D000C949E020C9400005D9B8D
S11300B0FECF8CB908955F9BFECF8CB1089590BD9F
S11300C089B988E18AB98EE880BD08956BE570E04E
S11300D087E590E00E949C0008958FE190E00E94E3
S11300E05F000E94660086E091E00E94EE0089E1D4
S11300F091E00E94EE0017BA8FEF8ABB88B381604B
S113010088BB0E945B00813621F49BB398609BBB43
S11301100FC0833621F49BB390619BBB09C0823628
S113012019F49BB31BBA04C0843611F49BB31BBAF5
S113013090E00E94E700E5CF0F931F93CF93DF93E6
S1130140009731F46115710519F480E090E03AC02C
S11301508B01EC016EE070E081E090E00E941E01F2
S1130160FC01892B91F380E883830115110571F05B
S11301701387028781E88383809148019091490124
S1130180892B21F4F0934901E09348012097C9F0A9
S1130190D187C08783818260838380914A01909153
S11301A04B01892B71F4F0934B01E0934A01809148
S11301B04C0190914D01892B21F4F0934D01E09372
S11301C04C01CF01DF91CF911F910F910895609160
S11301D04A0170914B010E94620208950F931F938C
S11301E0CF93DF93E0914A01F0914B01238121FFEA
S11301F01BC08C01D0E0C0E0F80181918F016091B7
S11302004A0170914B01DB011896ED91FC9119970D
S1130210882331F00995892B79F3DFEFCFEFECCF09
S11302208AE00995892B19F08FEF9FEF02C08D2F7B
S11302309C2FDF91CF911F910F9108950F931F93DE
S1130240CF93DF93869F8001879F100D969F100D9B
S11302501124C8010E943A01EC01009729F0A80179
S113026060E070E00E945B02CE01DF91CF911F91AC
S11302700F9108950F931F93CF93DF9382309105CD
S113028010F482E090E0E0915001F091510120E0FF
S113029030E0A0E0B0E0309719F140815181028153
S11302A0138148175907C8F08417950769F4109704
S11302B031F012960C93129713961C9327C0009357
S11302C050011093510122C02115310519F0421734
S11302D0530718F49A01BD01EF01DF01F801DBCFE8
S11302E021153105F9F0281B390B2430310580F430
S11302F08A819B816115710521F0FB0193838283BF
S113030004C09093510180935001FE01329644C081
S1130310FE01E20FF31F8193919322503109398337
S113032028833AC020914E0130914F01232B41F490
S1130330209102013091030130934F0120934E012B
S113034020910001309101012115310541F42DB7AF
S11303503EB74091040150910501241B350BE091F7
S11303604E01F0914F01E217F307A0F42E1B3F0B4F
S11303702817390778F0AC014E5F5F4F2417350713
S113038048F04E0F5F1F50934F0140934E018193ED
S1130390919302C0E0E0F0E0CF01DF91CF911F9193
S11303A00F910895CF93DF93009709F481C0FC0166
S11303B0329713821282A0915001B091510110978B
S11303C081F420813181820F931F20914E0130915D
S11303D04F012817390751F5F0934F01E0934E016F
S11303E067C0ED0120E030E0CE17DF0740F44A811A
S11303F05B819E0141155105F1F0EA01F5CFD383EC
S1130400C28340815181840F951FC817D90759F4BD
S113041088819981840F951F0296918380838A81B4
S11304209B81938382832115310529F4F093510133
S1130430E09350013DC0E901FB83EA83499159915E
S1130440C40FD51FEC17FD0761F480819181840FDF
S1130450951F0296E90199838883828193819B8306
S11304608A83E0E0F0E012968D919C9113970097B7
S113047019F0FD01DC01F7CF8D919C9111979D013D
S11304802E5F3F4F820F931F20914E0130914F01F9
S11304902817390769F4309729F410925101109202
S11304A0500102C013821282B0934F01A0934E01F7
S11304B0DF91CF910895DC0101C06D93415050400C
S11304C0E0F708950F931F93CF93DF93FB012381EC
S11304D021FD03C08FEF9FEF2CC022FF16C0468181
S11304E05781248135814217530744F4A081B18197
S11304F09D012F5F3F4F318320838C932681378169
S11305002F5F3F4F3783268314C08B01EC01FB011F
S11305100084F185E02D0995892BE1F6D801169622
S11305208D919C911797019617969C938E9316978D
S1130530CE01DF91CF911F910F910895F894FFCFD1
S11305400000520120005541525420546573742018
S113055050726F6772616D21005479706520616E0D
S1130560792063686172616374657220616E6420CE
S113057069742077696C6C206265206563686F65B7
S10B058064206261636B2E002C
S9030000FC
