S01700004763634170706C69636174696F6E322E737265635A
S11300000C94B4010C94D1010C94D1010C94D10141
S11300100C94D1010C94D1010C94D1010C94D10114
S11300200C94D1010C94D1010C94D1010C94D10104
S11300300C94D1010C94D1010C94D1010C94D101F4
S11300400C94D1010C94D1010C94D1010C94D101E4
S11300500C94D1010C94D1010C94D1010C94D101D4
S11300600C94D1010C94D1010C94D1010C94D101C4
S1130070000000000000000000065F5F06000000B2
S11300800007070007070000147F7F147F7F140018
S1130090242E6B6B3A120000466630180C66620020
S11300A0307A4F5D377A48000407030000000000EF
S11300B0001C3E63410000000041633E1C00000040
S11300C0082A3E1C1C3E2A0808083E3E0808000078
S11300D000A0E0600000000008080808080800000C
S11300E000006060000000006030180C060301008E
S11300F03E7F594D7F3E000042427F7F40400000DA
S1130100627359496F660000226349497F360000D3
S1130110181C16137F7F1000276745457D390000A2
S11301203C7E4B4979300000036371190F070000CE
S1130130367F49497F360000064F49693F1E00005B
S113014000006C6C0000000000A0EC6C00000000DB
S1130150081C366341000000141414141414000025
S1130160004163361C080000020351590F060000C9
S11301703E7F415D5D1F1E007C7E13137E7C00006C
S1130180417F7F49497F36001C3E63414163220021
S1130190417F7F41637F1C00417F7F495D41630054
S11301A0417F7F491D0103001C3E6341517372006E
S11301B07F7F08087F7F000000417F7F41000000AF
S11301C0307040417F3F0100417F7F081C7763000E
S11301D0417F7F41406070007F7F060C067F7F0077
S11301E07F7F060C187F7F001C3E6341633E1C002A
S11301F0417F7F49090F06001E3F21717F5E000089
S1130200417F7F19396F460026674D597B320000C4
S113021003417F7F410300007F7F40407F7F0000D8
S11302201F3F60603F1F00007F7F3018307F7F00DA
S113023063771C081C776300074F78784F0700002A
S11302406773594D47637100007F7F41410000008F
S11302500103060C183060000041417F7F0000005C
S1130260080C0603060C0800808080808080808053
S11302700000030704000000207454543C7840003C
S1130280413F7F44447C3800387C44446C2800005F
S1130290307848493F7F4000387C54545C18000053
S11302A0487E7F490302000098BCA4A4F87C0400A3
S11302B0417F7F08047C780000447D7D400000007D
S11302C040C484FD7D000000417F7F10386C4400F1
S11302D000417F7F400000007C7C0C180C7C78007F
S11302E07C7C04047C780000387C44447C38000026
S11302F084FCF8A4243C1800183C24A4F8FC8400D2
S1130300447C78441C180000485C54547424000055
S113031000043E7F442400003C7C40403C7C400080
S11303201C3C60603C1C00003C7C6030607C3C00F9
S1130330446C3810386C44009CBCA0A0FC7C0000C9
S11303404C64745C4C64000008083E774141000032
S113035000000077770000004141773E0808000064
S1130360020301030203010011241FBECFEFD4E0F6
S1130370DEBFCDBF11E0A0E0B1E0ECE7FCE002C0DD
S113038005900D92AC32B107D9F721E0ACE2B1E0AF
S113039001C01D92A633B207E1F70E94E1030C9459
S11303A03C060C94000087B3816087BB83B78860E8
S11303B083BF83B78F7B83BF83B78F7D83BF83B7AF
S11303C0806183BF83B78B7F83BF83B78D7F83BFF8
S11303D083B7816083BF11BE08951092001420E09A
S11303E030E004C0909100142F5F3F4F482F50E03D
S11303F042175307BCF7892F0895282F30E0293876
S1130400310574F4C9019695982F88279795879597
S1130410821B930B6EE870E00E944204CB010895A6
S11304202439310594F02E583109C9019695982F35
S1130430882797958795821B930B61E770E00E944C
S11304404204CB0181589F4F08958FE790E00895AF
S11304500F931F93CF93DF9300D000D0CDB7DEB7B7
S11304608C0180E00E94ED01898389810E94FD0155
S1130470F8019183808381E00E94ED018A838A815F
S113048090E0F8019383828382E00E94ED018B83E4
S11304908B8190E0F8019583848383E00E94ED01D1
S11304A08C838C8190E0F801978386830F900F9062
S11304B00F900F90DF91CF911F910F91089580932A
S11304C0001008958093001208958EEA0E945F023E
S11304D081EA0E945F028AED0E945F0282E10E942B
S11304E05F0288EC0E945F0288EA0E945F028FE349
S11304F00E945F0285ED0E945F0280E80E945F0215
S113050081E80E945F0280E50E945F0289ED0E94FB
S11305105F0281E20E945F0280E20E945F0282E049
S11305200E945F028BED0E945F0280E30E945F02E3
S11305308DEA0E945F0280E00E945F0284EA0E94CA
S11305405F0286EA0E945F028FEA0E945F020895BA
S113055080550E945F020895CF93DF93EC018F7062
S11305609078992324F40197806F9F6F01960E94DD
S11305705F02CE01DD230CF40F9695958795959532
S113058087959595879595958795805F0E945F02DD
S1130590DF91CF9108951F93CF93DF9390EE980F3F
S11305A09F3598F018C0E12FF0E0B097EE0FFF1FD1
S11305B0EE0FFF1FEE0FFF1FEC0FFD1FE059FF4F63
S11305C084910E946202219603C0182FC0E0D0E0FB
S11305D0C830D10544F3DF91CF911F910895CF9393
S11305E0DF93EB010E94A802CE010E94AC02DF91CE
S11305F0CF9108950F931F93CF93DF9300E010E002
S113060011C060E070E0C8010E94EF02C0E0D0E0D9
S113061004C080E00E9462022196C038D105CCF368
S11306200F5F1F4F0830110564F3DF91CF911F91C5
S11306300F9108950F931F93CF93DF930E94FA02B3
S113064000E010E016C0C8010E94A80280E090E01B
S11306500E94AC02C0E0D0E007C0CE010E94AC0210
S11306608FEF0E9462022196C038D105B4F30F5F68
S11306701F4F083011053CF3DF91CF911F910F916B
S11306800895EF92FF920F931F93CF93DF937C0112
S1130690C0E0D0E008C00E94CB02F801808190E065
S11306A00E94B504219687010C0F1D1FF80180815B
S11306B08111F1CFDF91CF911F910F91FF90EF90B6
S11306C008950F931F93CF93DF93EC018B0161E0A7
S11306D070E0888199810E94EF0280E20E94CB023F
S11306E00130110551F48881998101969983888399
S11306F0089779F4198218820CC08881998100972F
S113070029F487E090E09983888303C00197998353
S1130710888361E070E0888199810E94EF028EE312
S11307200E94CB02DF91CF911F910F910895CF9337
S1130730DF93EC0168E070E080E090E00E94EF025B
S113074086E091E00E94410368E070E081E090E07F
S11307500E94EF0280E191E00E94410368E070E0B2
S113076082E090E00E94EF0280E291E00E94410367
S113077060E070E0888199810E94EF028EE30E941C
S1130780CB02DF91CF91089585B7806885BF80B78C
S1130790806280BF08955D9BFECF8CB908955F9BF6
S11307A0FECF8CB1089590BD89B988E18AB98EE8ED
S11307B080BD08956FEC73E08BEC93E00E946A04B3
S11307C00895CF93DF93CDB7DEB72A970FB6F89489
S11307D0DEBF0FBECDBFCE0101960E9428021A864D
S11307E019868FE190E00E94D3030E94DA030E94ED
S11307F0C4030E94D3010E9465020E94FA020E946F
S11308001A032FEF8FEF9EE0215080409040E1F7D4
S113081000C000000E94FA02CE0109960E949703CC
S11308202FEF8FEF9EE0215080409040E1F700C011
S1130830000061E070E0CE0109960E946103CE01E0
S113084001960E9428022FEF8FE791E0215080400B
S11308509040E1F700C000C08B819C8184369105F3
S11308603CF461E070E0CE0109960E946103E7CF99
S1130870853B910524F360E070E0CE0109960E9467
S11308806103DDCF97FB072E16F4009407D077FDA4
S113089009D00E94560407FC05D03EF4909581953A
S11308A09F4F0895709561957F4F0895AA1BBB1BB8
S11308B051E107C0AA1FBB1FA617B70710F0A61B5C
S11308C0B70B881F991F5A95A9F780959095BC017D
S11308D0CD0108950F931F93CF93DF93009731F4C5
S11308E06115710519F480E090E03AC08B01EC01C8
S11308F06EE070E081E090E00E94BC04FC01892B72
S113090091F380E883830115110571F01387028741
S113091081E8838380912C0190912D01892B21F40E
S1130920F0932D01E0932C012097C9F0D187C08763
S113093083818260838380912E0190912F01892B82
S113094071F4F0932F01E0932E0180913001909186
S11309503101892B21F4F0933101E0933001CF016F
S1130960DF91CF911F910F91089560912E017091A5
S11309702F010E94000608950F931F93CF93DF93D6
S1130980869F8001879F100D969F100D1124C8012A
S11309900E94D804EC01009729F0A80160E070E0FF
S11309A00E94F905CE01DF91CF911F910F91089517
S11309B00F931F93CF93DF938230910510F482E05D
S11309C090E0E0913401F091350120E030E0A0E0C6
S11309D0B0E0309719F140815181028113814817A9
S11309E05907C8F08417950769F4109731F01296E7
S11309F00C93129713961C9327C000933401109301
S1130A00350122C02115310519F04217530718F496
S1130A109A01BD01EF01DF01F801DBCF211531059A
S1130A20F9F0281B390B2430310580F48A819B812D
S1130A306115710521F0FB019383828304C09093B7
S1130A40350180933401FE01329644C0FE01E20F69
S1130A50F31F8193919322503109398328833AC03B
S1130A602091320130913301232B41F42091020172
S1130A70309103013093330120933201209100011E
S1130A80309101012115310541F42DB73EB7409154
S1130A90040150910501241B350BE0913201F091C2
S1130AA03301E217F307A0F42E1B3F0B2817390775
S1130AB078F0AC014E5F5F4F2417350748F04E0FB6
S1130AC05F1F50933301409332018193919302C08D
S1130AD0E0E0F0E0CF01DF91CF911F910F910895F5
S1130AE0CF93DF93009709F481C0FC0132971382FE
S1130AF01282A0913401B0913501109781F42081C4
S1130B003181820F931F20913201309133012817D4
S1130B10390751F5F0933301E093320167C0ED01D9
S1130B2020E030E0CE17DF0740F44A815B819E016C
S1130B3041155105F1F0EA01F5CFD383C283408119
S1130B405181840F951FC817D90759F48881998159
S1130B50840F951F0296918380838A819B8193835E
S1130B6082832115310529F4F0933501E093340192
S1130B703DC0E901FB83EA8349915991C40FD51F14
S1130B80EC17FD0761F480819181840F951F029613
S1130B90E90199838883828193819B838A83E0E03E
S1130BA0F0E012968D919C911397009719F0FD0136
S1130BB0DC01F7CF8D919C9111979D012E5F3F4FE2
S1130BC0820F931F20913201309133012817390786
S1130BD069F4309729F4109235011092340102C05F
S1130BE013821282B0933301A0933201DF91CF912B
S1130BF00895DC0101C06D9341505040E0F7089521
S1130C000F931F93CF93DF93FB01238121FD03C037
S1130C108FEF9FEF2CC022FF16C04681578124819D
S1130C2035814217530744F4A081B1819D012F5FA0
S1130C303F4F318320838C93268137812F5F3F4F31
S1130C403783268314C08B01EC01FB010084F185FA
S1130C50E02D0995892BE1F6D80116968D919C918A
S1130C601797019617969C938E931697CE01DF9152
S10F0C70CF911F910F910895F894FFCFCD
S1130C7C000036012000506C61792047616D6500DD
S1130C8C43686F6F73652073657474696E67730062
S10F0C9C43686F6F7365206D6F64650022
S9030000FC
