:100000000C9438000C9455000C9455000C94550039
:100010000C9455000C9455000C9455000C9455000C
:100020000C9455000C9455000C9455000C945500FC
:100030000C9455000C9455000C9455000C945500EC
:100040000C9455000C9455000C9455000C945500DC
:100050000C9455000C9455000C9455000C945500CC
:100060000C9455000C9455000C9455000C945500BC
:1000700011241FBECFEFD4E0DEBFCDBF11E0A0E062
:10008000B1E0EEE4FDE002C005900D92A036B107AC
:10009000D9F721E0A0E6B1E001C01D92AA36B2076F
:1000A000E1F70E94AE010C94A5060C94000087B302
:1000B000816087BB83B7886083BF83B78F7B83BF33
:1000C00083B78F7D83BF83B7806183BF83B78B7F07
:1000D00083BF83B78D7F83BF83B7816083BF11BE2A
:1000E00008951092001420E030E004C090910014B4
:1000F0002F5F3F4F482F50E042175307BCF7892F1F
:100100000895282F30E02938310574F4C9019695F7
:10011000982F882797958795821B930B6EE870E040
:100120000E94E001CB0108952439310594F02E5846
:100130003109C9019695982F882797958795821B35
:10014000930B61E770E00E94E001CB0181589F4F63
:1001500008958FE790E008950F931F93CF93DF9357
:10016000CDB7DEB72C970FB6F894DEBF0FBECDBF6C
:100170008C0180E00E947100898789850E9481003E
:100180009A83898389819A81F8019183808381E0B0
:100190000E9471008A878A8590E09C838B838B8183
:1001A0009C81F8019383828382E00E9471008B8797
:1001B0008B8590E09E838D838D819E81F801958350
:1001C000848383E00E9471008C878C8590E09887FF
:1001D0008F838F819885F801978386832C960FB63D
:1001E000F894DEBF0FBECDBFDF91CF911F910F916D
:1001F0000895CF93C82F88B318BA83E00E943D01B9
:100200008C2F0E943D010E94410198B3906198BBE0
:10021000CF910895CF93DF93D82FC62F88B318BA04
:1002200082E00E943D018D2F0E943D018C2F0E9493
:100230003D0188B3806188BBDF91CF91089588B379
:1002400018BA80EC0E943D0188B3806188BB089594
:100250000E9446010E941F018DEE92E00197F1F786
:1002600000C000008EE00E94F900807E803821F0FE
:1002700084E291E00E94690208958FB9779BFECFD6
:10028000089580E00E943D018FB1089580EB87BB07
:1002900081E58DB908958093001008958EEA0E943B
:1002A0004B0181EA0E944B018AED0E944B0182E1E1
:1002B0000E944B0188EC0E944B0188EA0E944B018E
:1002C0008FE30E944B0185ED0E944B0180E80E9464
:1002D0004B0181E80E944B0180E50E944B0189EDB2
:1002E0000E944B0181E20E944B0180E20E944B017F
:1002F00082E00E944B018BED0E944B0180E30E9443
:100300004B018DEA0E944B0180E00E944B0184EA80
:100310000E944B0186EA0E944B018FEA0E944B012A
:10032000089585B7806885BF80B7806280BF0895D3
:100330005D9BFECF8CB908955F9BFECF8CB1089575
:1003400090BD89B988E18AB98EE880BD08956CE9CD
:1003500071E088E991E00E9408020895CF93DF934D
:10036000CDB7DEB72A970FB6F894DEBF0FBECDBF6C
:10037000CE0101960E94AC001A8619868FE190E0AA
:100380000E94A0010E94A7010E9491010E945700B3
:100390000E944E010E94280161EA8FE10E940A0139
:1003A0008FE10E94F9001F928F938CE591E09F935B
:1003B0008F930E9453020F900F900F900F90ECCFED
:1003C00097FB072E16F4009407D077FD09D00E9402
:1003D000F40107FC05D03EF4909581959F4F089558
:1003E000709561957F4F0895AA1BBB1B51E107C013
:1003F000AA1FBB1FA617B70710F0A61BB70B881FB5
:10040000991F5A95A9F780959095BC01CD01089543
:100410000F931F93CF93DF93009731F4611571050C
:1004200019F480E090E03AC08B01EC016EE070E0DE
:1004300081E090E00E947A04FC01892B91F380E82E
:1004400083830115110571F01387028781E8838387
:100450008091600190916101892B21F4F0936101F9
:10046000E09360012097C9F0D187C08783818260C3
:1004700083838091620190916301892B71F4F093E1
:100480006301E09362018091640190916501892B81
:1004900021F4F0936501E0936401CF01DF91CF91E6
:1004A0001F910F910895A0E0B0E0E9E5F2E00C940F
:1004B0007E06AE014B5F5F4FFA0161917191AF0112
:1004C00080916201909163010E949902E2E00C9494
:1004D0009A060F931F93CF93DF93E0916201F091FF
:1004E0006301238121FF1BC08C01D0E0C0E0F80133
:1004F00081918F016091620170916301DB01189617
:10050000ED91FC911997882331F00995892B79F3A6
:10051000DFEFCFEFECCF8AE00995892B19F08FEF51
:100520009FEF02C08D2F9C2FDF91CF911F910F91D4
:100530000895ABE0B0E0EFE9F2E00C946E066C01D8
:100540007B018A01FC0117821682838181FFCCC165
:10055000CE0101963C01F6019381F70193FD85914F
:1005600093FF81917F01882309F4BAC1853239F460
:1005700093FD859193FF81917F01853229F4B60126
:1005800090E00E94D405E7CF912C212C312CFFE183
:10059000F315D8F08B3279F038F4803279F0833269
:1005A000A1F4232D20611DC08D3261F0803369F4E8
:1005B000232D216016C0832D8260382EE32DE46048
:1005C0003E2E2AC0F32DF8601DC037FC2DC020ED53
:1005D000280F2A3040F08E32B9F436FC81C1232D29
:1005E0002064322E19C036FE06C08AE0989E200D87
:1005F0001124922E11C0EAE02E9E200D1124222EED
:10060000F32DF0623F2E08C08C3621F4832D8068D4
:10061000382E02C0883641F4F70193FD859193FF8F
:1006200081917F018111B3CF982F9F7D9554933095
:1006300028F40C5F1F4F9FE399830DC0833631F080
:10064000833771F0833509F059C021C0F8018081EA
:1006500089830E5F1F4F88248394912C530113C00C
:100660002801F2E04F0E511CF801A080B18036FE47
:1006700003C0692D70E002C06FEF7FEFC5010E94DB
:10068000C9054C018201F32DFF773F2E16C02801CA
:1006900022E0420E511CF801A080B18036FE03C05A
:1006A000692D70E002C06FEF7FEFC5010E94B705B2
:1006B0004C01F32DF0683F2E820133FC1BC0822DCC
:1006C00090E088169906B0F4B60180E290E00E94AE
:1006D000D4052A94F4CFF50137FC859137FE81913A
:1006E0005F01B60190E00E94D40521102A9421E018
:1006F000821A91088114910471F7E8C0843611F0D0
:10070000893641F5F80137FE07C060817181828129
:1007100093810C5F1F4F08C060817181072E000C10
:10072000880B990B0E5F1F4FF32DFF763F2E97FF1F
:1007300009C090958095709561957F4F8F4F9F4F21
:10074000F0683F2E2AE030E0A3010E941006882EB8
:10075000861845C0853731F4232D2F7EB22E2AE02E
:1007600030E025C0932D997FB92E8F36C1F018F453
:10077000883579F0B5C0803719F0883721F0B0C0DE
:10078000E92FE061BE2EB4FE0DC0FB2DF460BF2E3C
:1007900009C034FE0AC0292F2660B22E06C028E008
:1007A00030E005C020E130E002C020E132E0F80195
:1007B000B7FE07C060817181828193810C5F1F4FFA
:1007C00006C06081718180E090E00E5F1F4FA30141
:1007D0000E941006882E8618FB2DFF773F2E36FECE
:1007E0000DC0232D2E7FA22E891458F434FE0BC089
:1007F00032FC09C0832D8E7EA82E05C0B82CA32CF8
:1008000003C0B82C01C0B92CA4FE0FC0FE01E80D36
:10081000F11D8081803321F49A2D997EA92E09C083
:10082000A2FE06C0B394B39404C08A2D867809F062
:10083000B394A3FC11C0A0FE06C0B21488F4280C27
:10084000922C9B180EC0B21460F4B60180E290E0C6
:100850000E94D405B394F7CFB21418F42B1802C039
:10086000982C212CA4FE10C0B60180E390E00E94D9
:10087000D405A2FE17C0A1FC03C088E790E002C027
:1008800088E590E0B6010CC08A2D867859F0A1FE6B
:1008900002C08BE201C080E2A7FC8DE2B60190E0CD
:1008A0000E94D405891438F4B60180E390E00E94D8
:1008B000D4059A94F7CF8A94F301E80DF11D808155
:1008C000B60190E00E94D4058110F5CF222009F4F2
:1008D00042CEB60180E290E00E94D4052A94F6CF81
:1008E000F6018681978102C08FEF9FEF2B96E2E1A0
:1008F0000C948A060F931F93CF93DF93869F8001FA
:10090000879F100D969F100D1124C8010E94960418
:10091000EC01009729F0A80160E070E00E94C20598
:10092000CE01DF91CF911F910F9108950F931F93E7
:10093000CF93DF938230910510F482E090E0E09154
:100940006801F091690120E030E0A0E0B0E030976C
:1009500019F1408151810281138148175907C8F06C
:100960008417950769F4109731F012960C9312973B
:1009700013961C9327C0009368011093690122C04D
:100980002115310519F04217530718F49A01BD01DA
:10099000EF01DF01F801DBCF21153105F9F0281B4C
:1009A000390B2430310580F48A819B8161157105F2
:1009B00021F0FB019383828304C0909369018093AB
:1009C0006801FE01329644C0FE01E20FF31F8193DD
:1009D000919322503109398328833AC020916601CE
:1009E00030916701232B41F42091020130910301E2
:1009F000309367012093660120910001309101013D
:100A00002115310541F42DB73EB7409104015091B5
:100A10000501241B350BE0916601F0916701E21797
:100A2000F307A0F42E1B3F0B2817390778F0AC0111
:100A30004E5F5F4F2417350748F04E0F5F1F5093EE
:100A40006701409366018193919302C0E0E0F0E07A
:100A5000CF01DF91CF911F910F910895CF93DF9335
:100A6000009709F481C0FC01329713821282A09191
:100A70006801B0916901109781F420813181820F62
:100A8000931F20916601309167012817390751F5AE
:100A9000F0936701E093660167C0ED0120E030E06C
:100AA000CE17DF0740F44A815B819E014115510555
:100AB000F1F0EA01F5CFD383C28340815181840FE5
:100AC000951FC817D90759F488819981840F951FFC
:100AD0000296918380838A819B81938382832115EF
:100AE000310529F4F0936901E09368013DC0E90103
:100AF000FB83EA8349915991C40FD51FEC17FD0779
:100B000061F480819181840F951F0296E901998398
:100B10008883828193819B838A83E0E0F0E0129650
:100B20008D919C911397009719F0FD01DC01F7CF8F
:100B30008D919C9111979D012E5F3F4F820F931FC6
:100B400020916601309167012817390769F43097C1
:100B500029F4109269011092680102C01382128276
:100B6000B0936701A0936601DF91CF910895FC01D6
:100B70000590615070400110D8F7809590958E0FC8
:100B80009F1F0895DC0101C06D9341505040E0F774
:100B90000895FC016150704001900110D8F78095D4
:100BA00090958E0F9F1F08950F931F93CF93DF9300
:100BB000FB01238121FD03C08FEF9FEF2CC022FF9B
:100BC00016C046815781248135814217530744F46A
:100BD000A081B1819D012F5F3F4F318320838C9392
:100BE000268137812F5F3F4F3783268314C08B01C7
:100BF000EC01FB010084F185E02D0995892BE1F6DC
:100C0000D80116968D919C911797019617969C93F3
:100C10008E931697CE01DF91CF911F910F9108957A
:100C2000FA01AA27283051F1203181F1E8946F931D
:100C30006E7F6E5F7F4F8F4F9F4FAF4FB1E03ED0C3
:100C4000B4E03CD0670F781F891F9A1FA11D680F61
:100C5000791F8A1F911DA11D6A0F711D811D911D94
:100C6000A11D20D009F468943F912AE0269F112409
:100C70003019305D3193DEF6CF010895462F47706D
:100C8000405D4193B3E00FD0C9F7F6CF462F4F70C8
:100C9000405D4A3318F0495D31FD4052419302D026
:100CA000A9F7EACFB4E0A6959795879577956795CC
:100CB000BA95C9F700976105710508959B01AC01CC
:100CC0000A2E06945795479537952795BA95C9F7F3
:100CD000620F731F841F951FA01D08952F923F92CE
:100CE0004F925F926F927F928F929F92AF92BF923C
:100CF000CF92DF92EF92FF920F931F93CF93DF93E8
:100D0000CDB7DEB7CA1BDB0B0FB6F894DEBF0FBE44
:100D1000CDBF09942A88398848885F846E847D8491
:100D20008C849B84AA84B984C884DF80EE80FD8093
:100D30000C811B81AA81B981CE0FD11D0FB6F89409
:0E0D4000DEBF0FBECDBFED010895F894FFCFCA
:100D4E0000006A0120004552524F523A20666169F6
:100D5E006C656420746F20736574206D6F64652EEE
:100D6E00200D20004552524F523A204D43503235FD
:100D7E003135206E6F7420696E20636F6E66696701
:100D8E0075726174696F6E206D6F64652061667433
:100D9E0065722072657365742E200D002575200016
:00000001FF
