S01700004763634170706C69636174696F6E322E737265635A
S11300000C9438000C9455000C9455000C94550035
S11300100C9455000C9455000C9455000C94550008
S11300200C9455000C9455000C9455000C945500F8
S11300300C9455000C9455000C9455000C945500E8
S11300400C9455000C9455000C9455000C945500D8
S11300500C9455000C9455000C9455000C945500C8
S11300600C9455000C9455000C9455000C945500B8
S113007011241FBECFEFD4E0DEBFCDBF11E0A0E05E
S1130080B1E0E0EEFEE002C005900D92A43AB107A3
S1130090D9F721E0A4EAB1E001C01D92AE3AB2075B
S11300A0E1F70E945C010C946E070C94000087B386
S11300B0816087BB83B7886083BF83B78F7B83BF2F
S11300C083B78F7D83BF83B7806183BF83B78B7F03
S11300D083BF83B78D7F83BF83B7816083BF11BE26
S11300E008951092001420E030E004C090910014B0
S11300F02F5F3F4F482F50E042175307BCF7892F1B
S11301000895282F30E02938310574F4C9019695F3
S1130110982F882797958795821B930B6EE870E03C
S11301200E94A202CB0108952439310594F02E587F
S11301303109C9019695982F882797958795821B31
S1130140930B61E770E00E94A202CB0181589F4F9C
S113015008958FE790E008950F931F93CF93DF9353
S1130160CDB7DEB72C970FB6F894DEBF0FBECDBF68
S11301708C0180E00E947100898789850E9481003A
S11301809A83898389819A81F801808381E00E941E
S113019071008A878A8590E09C838B838B819C8104
S11301A0F801818382E00E9471008B878B8590E047
S11301B09E838D838D819E81F801828383E00E94DA
S11301C071008C878C8590E098878F838F819885C8
S11301D0F80183832C960FB6F894DEBF0FBECDBF13
S11301E0DF91CF911F910F9108950E940B02089502
S11301F00F931F93CF93DF938C01FC016081718176
S113020076956795769567957695679581E30E94CF
S1130210BA01F80160816295660F607E82E30E94F4
S1130220BA01F801628185E30E94BA01C0E0D0E01E
S113023009C0F801EC0FFD1F63818C2F8A5C0E94BA
S1130240BA012196F801828190E0C817D9078CF38E
S11302500E94CF01DF91CF911F910F9108950F93C9
S11302601F93CF93DF93CDB7DEB72B970FB6F894D8
S1130270DEBF0FBECDBF8C010E94AC0081E090E0D8
S11302809A83898384E08B83F801808191819D83A3
S11302908C83828193819F838E83CE0101960E94F9
S11302A0F8002B960FB6F894DEBF0FBECDBFDF91DA
S11302B0CF911F910F910895CF93DF9300D000D079
S11302C000D0CDB7DEB7CE0101960E94AC001E82ED
S11302D01D828FE190E00E9494020E949B020E9482
S11302E085020E9457000E9434020E94F5000E9479
S11302F0F3018BE590E00E942B0300E010E01DC0A9
S1130300E1E0F0E0EC0FFD1FE00FF11F80811F9290
S11303108F9386E091E09F938F930E94150389E069
S113032091E09F938F930E9415030F5F1F4F0F90CF
S11303300F900F900F900F900F900430110504F35D
S11303408DE091E00E943203CE0101960E942F01BC
S1130350D0CFCF93C82F88B318BA83E00E94770216
S11303608C2F0E9477020E947B0298B3906198BB05
S1130370CF910895CF93DF93D82FC62F88B318BA9F
S113038082E00E9477028D2F0E9477028C2F0E94B8
S1130390770288B3806188BBDF91CF91089588B3D9
S11303A018BA81E80E94770288B3806188BB0895F7
S11303B01F93CF93DF93182FD62FC42F88B318BA67
S11303C085E00E947702812F0E9477028D2F0E9480
S11303D077028C2F0E94770288B3806188BBDF91FB
S11303E0CF911F91089540E060EE8FE00E94D80104
S11303F08EE00E94A901807E21F08CE391E00E94AE
S11304003203089588B318BA80EC0E94770288B347
S1130410806188BB08950E9480020E9402028DEED2
S113042092E00197F1F700C0000040E860EE8FE031
S11304300E94D8018EE00E94A901807E803821F0BC
S113044084E691E00E94320361EC8AE20E94BA01E0
S113045069EE89E20E94BA0166E088E20E94BA016C
S113046008958093001008958EEA0E94310281EA73
S11304700E9431028AED0E94310282E10E9431021F
S113048088EC0E94310288EA0E9431028FE30E94C4
S1130490310285ED0E94310280E80E94310281E838
S11304A00E94310280E50E94310289ED0E943102EE
S11304B081E20E94310280E20E94310282E00E94C5
S11304C031028BED0E94310280E30E9431028DEAF9
S11304D00E94310280E00E94310284EA0E943102CB
S11304E086EA0E9431028FEA0E94310208958FB990
S11304F0779BFECF089580E00E9477028FB1089524
S113050080EB87BB81E58DB9089585B7806885BF89
S113051080B7806280BF08955D9BFECF8CB908953B
S11305205F9BFECF8CB1089590BD89B988E18AB9EB
S11305308EE880BD089560E972E08CE892E00E9444
S1130540CA02089597FB072E16F4009407D077FD8E
S113055009D00E94B60207FC05D03EF4909581951F
S11305609F4F0895709561957F4F0895AA1BBB1BFB
S113057051E107C0AA1FBB1FA617B70710F0A61B9F
S1130580B70B881F991F5A95A9F780959095BC01C0
S1130590CD0108950F931F93CF93DF93009731F408
S11305A06115710519F480E090E03AC08B01EC010B
S11305B06EE070E081E090E00E944305FC01892B2D
S11305C091F380E883830115110571F01387028785
S11305D081E883838091A4019091A501892B21F462
S11305E0F093A501E093A4012097C9F0D187C087B7
S11305F08381826083838091A6019091A701892BD6
S113060071F4F093A701E093A6018091A801909161
S1130610A901892B21F4F093A901E093A801CF014A
S1130620DF91CF911F910F910895A0E0B0E0EBE12D
S1130630F3E00C944707AE014B5F5F4FFA01619101
S11306407191AF018091A6019091A7010E9462036C
S1130650E2E00C9463076091A6017091A7010E94E7
S11306609D0608950F931F93CF93DF93E091A60106
S1130670F091A701238121FF1BC08C01D0E0C0E0D1
S1130680F80181918F016091A6017091A701DB01AE
S11306901896ED91FC911997882331F00995892BCF
S11306A079F3DFEFCFEFECCF8AE00995892B19F0CE
S11306B08FEF9FEF02C08D2F9C2FDF91CF911F9161
S11306C00F910895ABE0B0E0E8E6F3E00C9437074F
S11306D06C017B018A01FC0117821682838181FFF0
S11306E0CCC1CE0101963C01F6019381F70193FD43
S11306F0859193FF81917F01882309F4BAC18532E2
S113070039F493FD859193FF81917F01853229F41A
S1130710B60190E00E949D06E7CF912C212C312C4C
S1130720FFE1F315D8F08B3279F038F4803279F0A8
S11307308332A1F4232D20611DC08D3261F08033FA
S113074069F4232D216016C0832D8260382EE32D99
S1130750E4603E2E2AC0F32DF8601DC037FC2DC086
S113076020ED280F2A3040F08E32B9F436FC81C1D6
S1130770232D2064322E19C036FE06C08AE0989ECE
S1130780200D1124922E11C0EAE02E9E200D11247A
S1130790222EF32DF0623F2E08C08C3621F4832DD7
S11307A08068382E02C0883641F4F70193FD8591A4
S11307B093FF81917F018111B3CF982F9F7D955431
S11307C0933028F40C5F1F4F9FE399830DC0833649
S11307D031F0833771F0833509F059C021C0F80135
S11307E0808189830E5F1F4F88248394912C530149
S11307F013C02801F2E04F0E511CF801A080B18013
S113080036FE03C0692D70E002C06FEF7FEFC501B3
S11308100E9492064C018201F32DFF773F2E16C0F1
S1130820280122E0420E511CF801A080B18036FE5E
S113083003C0692D70E002C06FEF7FEFC5010E9415
S113084080064C01F32DF0683F2E820133FC1BC05F
S1130850822D90E088169906B0F4B60180E290E00B
S11308600E949D062A94F4CFF50137FC859137FE4A
S113087081915F01B60190E00E949D0621102A94A7
S113088021E0821A91088114910471F7E8C084363A
S113089011F0893641F5F80137FE07C06081718196
S11308A0828193810C5F1F4F08C060817181072E84
S11308B0000C880B990B0E5F1F4FF32DFF763F2E14
S11308C097FF09C090958095709561957F4F8F4FE4
S11308D09F4FF0683F2E2AE030E0A3010E94D90622
S11308E0882E861845C0853731F4232D2F7EB22EED
S11308F02AE030E025C0932D997FB92E8F36C1F0C0
S113090018F4883579F0B5C0803719F0883721F0AC
S1130910B0C0E92FE061BE2EB4FE0DC0FB2DF46023
S1130920BF2E09C034FE0AC0292F2660B22E06C08D
S113093028E030E005C020E130E002C020E132E0F0
S1130940F801B7FE07C060817181828193810C5FD9
S11309501F4F06C06081718180E090E00E5F1F4FE1
S1130960A3010E94D906882E8618FB2DFF773F2EFF
S113097036FE0DC0232D2E7FA22E891458F434FE8A
S11309800BC032FC09C0832D8E7EA82E05C0B82C66
S1130990A32C03C0B82C01C0B92CA4FE0FC0FE01C7
S11309A0E80DF11D8081803321F49A2D997EA92EC2
S11309B009C0A2FE06C0B394B39404C08A2D8678FD
S11309C009F0B394A3FC11C0A0FE06C0B21488F4CD
S11309D0280C922C9B180EC0B21460F4B60180E26D
S11309E090E00E949D06B394F7CFB21418F42B182C
S11309F002C0982C212CA4FE10C0B60180E390E024
S1130A000E949D06A2FE17C0A1FC03C088E790E0E7
S1130A1002C088E590E0B6010CC08A2D867859F0B2
S1130A20A1FE02C08BE201C080E2A7FC8DE2B60108
S1130A3090E00E949D06891438F4B60180E390E0AA
S1130A400E949D069A94F7CF8A94F301E80DF11D54
S1130A508081B60190E00E949D068110F5CF22208E
S1130A6009F442CEB60180E290E00E949D062A94E9
S1130A70F6CFF6018681978102C08FEF9FEF2B9608
S1130A80E2E10C9453070F931F93CF93DF93869F58
S1130A908001879F100D969F100D1124C8010E949C
S1130AA05F05EC01009729F0A80160E070E00E9466
S1130AB08B06CE01DF91CF911F910F9108950F9373
S1130AC01F93CF93DF938230910510F482E090E07E
S1130AD0E091AC01F091AD0120E030E0A0E0B0E0A5
S1130AE0309719F1408151810281138148175907C8
S1130AF0C8F08417950769F4109731F012960C9397
S1130B00129713961C9327C00093AC011093AD0168
S1130B1022C02115310519F04217530718F49A0120
S1130B20BD01EF01DF01F801DBCF21153105F9F03B
S1130B30281B390B2430310580F48A819B8161158F
S1130B40710521F0FB019383828304C09093AD016E
S1130B508093AC01FE01329644C0FE01E20FF31F04
S1130B608193919322503109398328833AC020918B
S1130B70AA013091AB01232B41F420910201309161
S1130B8003013093AB012093AA012091000130911D
S1130B9001012115310541F42DB73EB740910401FF
S1130BA050910501241B350BE091AA01F091AB0192
S1130BB0E217F307A0F42E1B3F0B2817390778F030
S1130BC0AC014E5F5F4F2417350748F04E0F5F1F8F
S1130BD05093AB014093AA018193919302C0E0E04A
S1130BE0F0E0CF01DF91CF911F910F910895CF9342
S1130BF0DF93009709F481C0FC01329713821282BB
S1130C00A091AC01B091AD01109781F420813181A4
S1130C10820F931F2091AA013091AB012817390745
S1130C2051F5F093AB01E093AA0167C0ED0120E018
S1130C3030E0CE17DF0740F44A815B819E01411505
S1130C405105F1F0EA01F5CFD383C283408151818C
S1130C50840F951FC817D90759F488819981840F87
S1130C60951F0296918380838A819B8193838283DB
S1130C702115310529F4F093AD01E093AC013DC099
S1130C80E901FB83EA8349915991C40FD51FEC17FD
S1130C90FD0761F480819181840F951F0296E9011B
S1130CA099838883828193819B838A83E0E0F0E047
S1130CB012968D919C911397009719F0FD01DC0118
S1130CC0F7CF8D919C9111979D012E5F3F4F820F1D
S1130CD0931F2091AA013091AB012817390769F4B9
S1130CE0309729F41092AD011092AC0102C0138226
S1130CF01282B093AB01A093AA01DF91CF91089522
S1130D00FC010590615070400110D8F780959095D2
S1130D108E0F9F1F0895DC0101C06D934150504018
S1130D20E0F70895FC016150704001900110D8F77C
S1130D30809590958E0F9F1F08950F931F93CF93C7
S1130D40DF93FB01238121FD03C08FEF9FEF2CC0B4
S1130D5022FF16C0468157812481358142175307EB
S1130D6044F4A081B1819D012F5F3F4F31832083E3
S1130D708C93268137812F5F3F4F3783268314C09E
S1130D808B01EC01FB010084F185E02D0995892B91
S1130D90E1F6D80116968D919C91179701961796B6
S1130DA09C938E931697CE01DF91CF911F910F9153
S1130DB00895FA01AA27283051F1203181F1E894ED
S1130DC06F936E7F6E5F7F4F8F4F9F4FAF4FB1E03A
S1130DD03ED0B4E03CD0670F781F891F9A1FA11D35
S1130DE0680F791F8A1F911DA11D6A0F711D811D36
S1130DF0911DA11D20D009F468943F912AE0269FFB
S1130E0011243019305D3193DEF6CF010895462F59
S1130E104770405D4193B3E00FD0C9F7F6CF462F3A
S1130E204F70405D4A3318F0495D31FD40524193A3
S1130E3002D0A9F7EACFB4E0A69597958795779560
S1130E406795BA95C9F700976105710508959B01E7
S1130E50AC010A2E06945795479537952795BA9570
S1130E60C9F7620F731F841F951FA01D08952F9249
S1130E703F924F925F926F927F928F929F92AF9226
S1130E80BF92CF92DF92EF92FF920F931F93CF9373
S1130E90DF93CDB7DEB7CA1BDB0B0FB6F894DEBF0A
S1130EA00FBECDBF09942A88398848885F846E8430
S1130EB07D848C849B84AA84B984C884DF80EE807A
S1130EC0FD800C811B81AA81B981CE0FD11D0FB683
S1130ED0F894DEBF0FBECDBFED010895F894FFCFA7
S1130EE00000AE012000256400202C20005D200DB0
S1130EF020004552524F523A206661696C65642065
S1130F00746F20736574206D6F646520746F206C3A
S1130F106F6F706261636B2E200D20004552524F3B
S1130F20523A206661696C656420746F207365743D
S1130F30206D6F646520746F206E6F726D616C2E0E
S1130F40200D20004552524F523A204D4350323525
S1130F503135206E6F7420696E20636F6E66696729
S1130F6075726174696F6E206D6F6465206166745B
S1130F7065722072657365742E200D00257520201E
S1070F800D200A0032
S9030000FC
